:0200000460009A
:100000004643464200000156000000000103030081
:1000100000000000000000000000000000000000E0
:1000200000000000000000000000000000000000D0
:1000300000000000000000000000000000000000C0
:1000400000000000010408000000000000000000A3
:100050000000200000000000000000000000000080
:100060000000000000000000000000000000000090
:100070000000000000000000000000000000000080
:10008000EB04180A063204260000000000000000FD
:10009000050404240000000000000000000000002F
:1000A0000000000000000000000000000000000050
:1000B0000604000000000000000000000000000036
:1000C0000000000000000000000000000000000030
:1000D00020041808000000000000000000000000DC
:1000E0000000000000000000000000000000000010
:1000F0000000000000000000000000000000000000
:10010000D8041808000000000000000000000000F3
:100110000204180804200000000000000000000095
:1001200000000000000000000000000000000000CF
:10013000600400000000000000000000000000005B
:1001400000000000000000000000000000000000AF
:10015000000000000000000000000000000000009F
:10016000000000000000000000000000000000008F
:10017000000000000000000000000000000000007F
:10018000000000000000000000000000000000006F
:10019000000000000000000000000000000000005F
:1001A000000000000000000000000000000000004F
:1001B000000000000000000000000000000000003F
:1001C000000100000010000001000000000000001D
:1001D000000001000000000000000000000000001E
:1001E000000000000000000000000000000000000F
:1001F00000000000000000000000000000000000FF
:10020000FFFFFFFFFFFFFFFFFFFFFFFFFFFFFFFFFE
:10021000FFFFFFFFFFFFFFFFFFFFFFFFFFFFFFFFEE
:10100000D1002043491600600000000000000000ED
:10101000201000600010006000400160000000002F
:1010200000000060004C010000000000FFFFFFFF17
:10103000FFFFFFFFFFFFFFFFFFFFFFFFFFFFFFFFC0
:10104000FFFFFFFFFFFFFFFFFFFFFFFFFFFFFFFFB0
:10105000FFFFFFFFFFFFFFFFFFFFFFFFFFFFFFFFA0
:10106000FFFFFFFFFFFFFFFFFFFFFFFFFFFFFFFF90
:10140000814205D051F8043B40F8043B8242F9D8B0
:10141000704700BF044A05494FF0000342F8043BFF
:101420009142FBD8704700BFC0260020A03B00209F
:101430002DE98848BFF34F8F00BF00BF00BF00BF3A
:1014400000F016F9674B0822C3F8542100BF00BF13
:1014500000BF00BF00BF00BF00BF00BF00BF00BF94
:1014600000BF00BF00BF00BF00BF00BF5E4A5F49B2
:101470005F48FFF7C5FF5F4A5F496048FFF7C0FF5D
:101480005F4CFFF7C7FF4FF470004FF0E0210023DF
:101490005C4AC1F8880D44F823200133B02BFAD1FF
:1014A000594B8021594A03F8011B9342FBD14FF05D
:1014B000E0254C4E4FF08039DFF880B1DFF880A195
:1014C0004FF0FF31C5F8084D0027C6F80491C6F863
:1014D00000B1C6F8F490C6F8F0A0D5F8243DDFF8C6
:1014E000648143F4E0234A4AC5F8243DD8F81C300F
:1014F00023F07F0343F04003C8F81C30D8F82430B1
:1015000023F07F0343F04003C8F824309166D1668E
:101510001167516700F0B4F83E4B3F49A3633F4B5E
:10152000E36363236B610323AF612B613C4BC5F81D
:10153000203DD5F8FC3D43F08073C5F8FC3D394BA8
:101540001A6842F001021A605B680B6000F020F933
:10155000C6F804913448C6F800B1C6F8F490C6F84D
:10156000F0A000F0C1FAD8F86C10304B304A41F4CA
:101570004051C8F86C101F60C3F80871C3F81871A7
:10158000C3F82871C3F83871936BDB0708D442F6AF
:101590001563284951651365936B43F00103936309
:1015A000234A254C936843F00113936000F054FAEA
:1015B00000F086FA00F01AF900F05CF82368132BAB
:1015C000FCD900F0ABF92368B3F5967FFBD300F0AC
:1015D00055F800F051F800F07FFA00F079FA30BFCA
:1015E000FDE700BF00800D4048FA0000181C0060B5
:1015F00000000000C02600206416016000000020EA
:1016000000240020615B000000E400E0A0E400E0B2
:1016100000C00A4041500000203B0020A9500000BB
:1016200000002020001000E00046C32300400840D6
:1016300000400D400000C056243B00201B10182025
:101640000C0D111300C00F40054B4FF42A01054A41
:1016500005485A641864054A99639546FFF7E8FE01
:1016600000C00A40AFAAAAAA070020000000072075
:10167000704700BF704700BF704700BF00BF704792
:1016800010B44FF0E023002110243148C3F8941D1A
:10169000C3F89C4D1124C3F8A00D2E48C3F89C4DEF
:1016A0001224C3F8A00D2C48C3F89C4D2B4AC3F854
:1016B000A00D2B4C42F015022A48C3F89C4DC3F8EC
:1016C000A00D294C2948C3F89C4DC3F8A00D284C07
:1016D000C3F89C2D2748284AC3F8A04DC3F89C0D99
:1016E000C3F8A02D02F5A022244C0C322448C3F8E4
:1016F0009C4DC3F8A02D234AC3F89C0D224CC3F87F
:10170000A02D02F14062C3F89C4D2048C3F8A02DE3
:101710000C32C3F89C0DC3F8A02D00BF00BF00BF62
:1017200000BF00BF0122C3F8942DBFF34F8FBFF35A
:101730006F8FC3F8501FBFF34F8FBFF36F8FD3F876
:10174000142D5DF8044B42F44032C3F8142D704759
:101750003F0000102500080709001000A03B0020F2
:1017600013002000210002071400002025000813A8
:10177000090000101600202027000B13170000405E
:10178000180000602F000B07190000701A0000807D
:10179000F0B4154A40274FF480314FF480564FF48F
:1017A00000554FF4404443F24200136913F0020F16
:1017B0000ED113F4005F0FD013F4805F0ED0002B16
:1017C000F3DA13F4803F0BD15B060BD5F0BC704706
:1017D000946151619061E8E75561E6E75661E4E79D
:1017E0009161E2E75761E0E700800D403F4A032046
:1017F0003F49F3EE095AD2F880304FF0000C9FEDCC
:101800003D6A23F001039FED3C5A30B4C2F88030AA
:10181000C2F89000D1F8E010384DCBB2384C3948BE
:101820002B6007EE903A0B0DC1F30B21F8EEE77A2F
:1018300006EE903A07EE101A334BB8EEC77A2160E5
:10184000F8EEE66A314937EEC66A37EEC55A76EEEB
:10185000C76A77EEE57A26EE266AC3ED006A25EEC2
:10186000265AD2F8803067EEA64AC0ED007AC6EE5E
:10187000275A274885EE276AC4EEA76A75EE875A6D
:10188000FCEEE55A36EE076A15EE904ABCEEC66AE3
:1018900043EA045376EE877AC2F8803016EE103AA7
:1018A000D2F89041FCEEE77A01EA0341214317EEBA
:1018B000903AC2F89011C3F30B03D2F890110B4386
:1018C0001449C2F89031D2F8803043F00203C2F8D4
:1018D0008030114B80F840C0C1F840314FF0E02318
:1018E000012230BCC3F80821704700BF00810D40C1
:1018F00000441F400000AA420000B44254390020B6
:1019000050390020583900205C3900200000FF0FBA
:1019100000E400E000240020495D0000314B40F667
:10192000617210B5C3F8202140F2044400F0D8F8E9
:101930002D4A2E49D2F880302D4843F00303C2F8D7
:1019400080302C4BC1F8604102681A4203D1D1F8B3
:10195000A8319A071BD0254A4FF00041244B596308
:10196000D2F8403143F00203C2F84031D2F840319E
:101970009B07FBD44FF400304FF0E0211C4B4FF09D
:101980000042C1F88C0219209A6300F09DF8184AB1
:101990004FF08040154C002190630A20164B1160D7
:1019A0004FF42072C4F8A801184600F085F84FF4EF
:1019B000800203464FF4810040F243111860C4F8DE
:1019C00058311A640D4B0E4AC4F84811C3F804226A
:1019D0004FF0E0224FF400310123C2F80C11C4F89B
:1019E000403110BD00800D4000C00F4000002E406F
:1019F00000900D40001C1E0000000020002400206C
:101A0000315F000008B50E4B1B6E9B0700D4FBBE78
:101A100072B60C4B00200C4AC3F8400103F160433E
:101A20000A49A3F55F2311649D46BFF34F8F4FF41E
:101A300000130748074ADB6902609B68984700BFAC
:101A400000441F4000002E4000C00A400300200058
:101A500000802020000012EB104BA020104AD96E0D
:101A600041F4403110B4D96640F23764D96E41F484
:101A70004071D96654649064936C1B06FCD4094A87
:101A800040F23761A02351649364936C13F0800398
:101A9000FBD1054A13705DF8044B704700C00F403E
:101AA00000400C4000800C40603B0020F8B500BFB7
:101AB000F8BC08BC9E4670475FF800F03D980000F7
:101AC0005FF800F0395A00005FF800F0B9540000E8
:101AD0005FF800F02D5700005FF800F0359B000024
:101AE0005FF800F0A16600005FF800F0C951000047
:101AF000050100005D050000392D0000AD2D00003E
:101B00006D31000055340000D1340000693500000B
:101B10001603550053004200200053006500720078
:101B2000690061006C000000180354006500650046
:101B30006E00730079006400750069006E006F002C
:101B40000403090409026200030100C032080B000B
:101B50000202020100090400000102020100052442
:101B600000100105240101010424020605240600D9
:101B7000010705820310001009040100020A000099
:101B80000007050302400000070584024000000929
:101B900004020002FF6AFF000705810240000107FE
:101BA000050102400001000009026200030100C0BB
:101BB00032080B00020202010009040000010202C7
:101BC000010005240010010524010101042402067E
:101BD0000524060001070582031000050904010021
:101BE000020A000000070503020002000705840244
:101BF0000002000904020002FF6AC7000705810213
:101C00000002010705010200020100000A060002AD
:081C1000EF0201400100000099
:101C180000000000000000000000000000000000BC
:101C280000000000000000000000000000000000AC
:101C3800F8B54FF084439D695A6915400DD0254F7A
:101C480001269D6195FAA5F4B4FA84F457F8243076
:101C580006FA04F49847A543F4D11F4B9D695A69C5
:101C680015400DD01D4F01269D6195FAA5F4B4FAD3
:101C780084F457F8243006FA04F49847A543F4D1BD
:101C8800174B9D695A6915400DD0164F01269D6165
:101C980095FAA5F4B4FA84F457F8243006FA04F453
:101CA8009847A543F4D1104B9D695A6915400DD04A
:101CB8000E4F01269D6195FAA5F4B4FA84F457F8FD
:101CC800243006FA04F49847A543F4D1BFF34F8FA4
:101CD800F8BD00BF201E002000400042A01E0020CA
:101CE80000800042201F002000C00042A01F0020EA
:101CF8000548064B1B1AD90F01EBA301491002D066
:101D0800034B03B118477047C0260020C0260020A7
:101D18000000000008B5054B1BB105490548AFF3A5
:101D28000080BDE80840FFF7E3BF00BF00000000E7
:101D380000390020004C016010B50446803004F0E2
:101D480009FF204610BD00BF034B10B504460360D1
:101D580002F0A4FD204610BDE0080020054B10B598
:101D68000446036002F09AFD1421204605F08AFB20
:101D7800204610BDE008002070B5164C164DD4E979
:101D88000023501C43F10001C4E900012B7803B182
:101D980070BD0122114E124B2A70D4E90001C3E92B
:101DA800000133680E21D86E04F00EFC0D4AB7EE20
:101DB800005B336892ED1E6BD86E85EE067BFCEEF9
:101DC800C77B17EE901A04F03DFC074B4022C3F87E
:101DD8008C2070BD302F0020633B00203033002062
:101DE800382F0020082E002000C00042000000000C
:101DF80070B50121042005F0E5F901210D20364CCC
:101E080005F0E0F9354B0122642093F8701058640E
:101E18001A7083F84020D4E90045C3E90245002937
:101E280046D0D3E91E01C3E90E01002000212C4C45
:101E380001252C4E83F8305083F8485083F85850C9
:101E4800C3E9140120A1D1E90001C3E91801052162
:101E58000E2005F0B7F923680421D86E04F050FB72
:101E680023680A21D86E04F08FFA216830460022D0
:101E780004F0EEFC22684FF400630E21D06EC6F821
:101E8800A430194B1D7004F09FFB23684CF25031AD
:101E9800D86E04F0D7FB0321172005F093F903222D
:101EA8001249172005F0C8F9BDE8704000F026BABD
:101EB80007A5D5E9004583F8702020462946C3E9DF
:101EC8001E45B0E7AFF300806666666666660A4040
:101ED800F168E388B5F8E43E302F0020082E002092
:101EE80030330020C0260020633B00206901000039
:101EF800D0F89C1010B483B0002940D0D0F88830B6
:101F0800DB073CD41F4B994210D921F01F0301F184
:101F1800C804BFF34F8F4FF0E022C2F85C3F203374
:101F28009C42FAD8BFF34F8FBFF36F8F164C2378BC
:101F380003F0FF02FBB9012340F2FF3C2370134B6F
:101F4800134C93ED007B134B83ED007B31F8023B80
:101F58009BB2ADF80630BDF80630ACEB03039BB27C
:101F680024F812300132642AF0D100210A4B0122F0
:101F7800C0F88C101A7003B05DF8044B7047D0F8A5
:101F88009410BFE7FFFF1F20643B0020382F00207C
:101F980038380020402F0020653B002070B51C4BCE
:101FA8004FF0010E1B4D86B01B4CAC461B4E93EDFB
:101FB800007B0FCC0CF808EBACE80F000FCCACE8BA
:101FC8000F0094E80F006C4685F808E08CE80F00D5
:101FD80068464FF49962124985ED047B03F0D6FBFD
:101FE800B4460FCCACE80F0023682A460D493046AA
:101FF800CCF8003003F080FF0B4A00230B4C107024
:10200800F5680B490B4A0B702560137006B070BD5C
:10201800402F0020402D0020002F002000380020F5
:10202800343300206C0F0020613B0020FC37002077
:10203800653B0020643B002010B54FF4FA713E4820
:1020480000F0AAFA00284BD13C4C2378002B34D05E
:102058003B494FF0640C3B4A3B4B48681268A3FB72
:102068000232920C0CFB02F24B681B1A9A42FBD804
:1020780036490122364BD1E900011A7083F8402015
:10208800C3E90201642093F87010586401B3D3E9DE
:102098001E010122C3E90E010020002183F830202F
:1020A80083F8482083F858200022C3E914011EA1B0
:1020B800D1E900012270C3E91801264CD4F88C300C
:1020C800EBB9254B1B78A3B9BDE8104000F08EB9D9
:1020D80017A1D1E9000183F87020C3E91E01D8E7F0
:1020E8001E4B082200211448C3F88C2000F04AFA3D
:1020F800AAE7FFF753FFBDE8104000F077B9402288
:10210800174B00212046C3F88C20FFF7F1FE154B32
:102118001B68D86E04F04AFB204604F0B5FC124B4D
:1021280000221A70CDE700BF6666666666660A40DA
:10213800F168E388B5F8E43E283800205F3B0020CA
:10214800001000E03C18002083DE1B43302F0020E5
:10215800082E0020C0260020653B002000400042D9
:1021680000C0004230330020633B002070B50022DD
:102178001E4C1F4E1146204602F0B0FB1D4B324646
:102188001D492360204606F033FD7C2005F078F9D0
:102198001A4C054603F0FAFE194A2346002104F1B9
:1021A8008000156004F120020D4643F8602B23647B
:1021B80004F076FC134964233246C4F89410204690
:1021C8001149C4F88850A4F89830C4F89C50A4F871
:1021D800A050C4F8A45084F8A85006F009FD294678
:1021E80001220A48BDE8704000F0ACB92C3B002041
:1021F8007C180020E008002039010000C0260020DB
:102208003033002000002020290100002838002059
:1022180010B514460846114606F0B2FB204610BD1C
:1022280008B506F0E1FB012008BD00BF10B50C465B
:102238000F48092106F0A4FB21460E4804F090FD42
:1022480003210D4806F09CFB20B200F075FA30B16E
:10225800044609F0BDFA0146204606F091FB01212B
:10226800064806F08DFB034804F086FD002010BDEB
:102278005407002040180020600700206407002051
:10228800012938B514461AD008210E4806F078FB03
:102298000023102221460C4804F08AFD01210B4836
:1022A80006F06EFB2146084804F05AFD0121084853
:1022B80006F066FB044804F05FFD012038BD0921E3
:1022C8000448E3E784070020401800207C0700202A
:1022D80080070020700700200721044808B506F091
:1022E8004FFB034804F048FD012008BD68070020A3
:1022F800401800204FF0FF30704700BF2DE9F04331
:10230800112189B02B4A4FF480702B4B40F2EE28F4
:102318002A4C2B4D2B4FDFF8D090CDE90621CDE983
:102328000430294A29492A4801910090294B2A4911
:102338002A48CDE902242A4A01F0C0F9294C2E681E
:1023480006F09CFB237803B33B78DA071DD52B688E
:10235800D9F800209B1A0E2B17D92F6840F6B736EC
:10236800DFF86080DFF8809006F088FB2378B3B14F
:1023780098F80030DB0712D52B68D9F800209B1A93
:102388000E2B0CD909B0BDE8F0832B6822789B1B73
:1023980062B1B3F5FA6FE0D806F070FBD0E72B68AE
:1023A800DB1BB342E0D909B0BDE8F0834345F3D95C
:1023B800D3E700BFFC390020203A00209007002016
:1023C800243B00206C3B00209C070020A007002035
:1023D800B007002070030020081200206439002094
:1023E8005C2000206D3B0020483B002008B506F02B
:1023F8005DFA002800DC08BD06F09CFA0449034693
:10240800012204480B70BDE8084001F0C9BD00BFB7
:10241800623B002064390020044A0549526C08B523
:10242800002301F011FE012008BD00BF082E002086
:102438003838002008B5034B93ED180B01F0A4F9C8
:10244800012008BD082E002008B5034B93ED140B9E
:1024580001F09AF9012008BD082E002008B5034BA9
:1024680093ED0E0B01F090F9012008BD082E002015
:1024780008B5034B93ED1E0B01F086F9012008BD4A
:10248800082E002008B5034B0A22596C01F06CF99C
:10249800012008BD082E002000B583B0012269463E
:1024A80001F03CFB58B101230749084A184613704C
:1024B8009DED007B81ED1E7B03B05DF804FB4FF0C2
:1024C800FF3003B05DF804FB082E00205F3B0020BE
:1024D80000B583B00122694601F058FB40B1074BB3
:1024E80001209DED007B83ED007B03B05DF804FBCC
:1024F8004FF0FF3003B05DF804FB00BF302F002021
:1025080000B50A2183B0054BD3E90023009101F0FF
:102518002FF9012003B05DF804FB00BF302F002025
:10252800014B1868704700BF243B0020034A044B46
:102538001068A3FB00308009704700BF243B0020CF
:10254800D34D6210022938B50446154612D00A4BFD
:102558000A4A012918BF1346A36035B198470023DA
:102568002573C4E90003204638BD20462573C4E915
:10257800005538BD024BEFE7615500001109000016
:102588001D09000038B5836804460D4698470123A5
:10259800C4E90005237338BD037B70B50D46466852
:1025A8002BB10446836898472368F61A0644AE425E
:1025B80034BF0020012070BD30B583B0002304462D
:1025C8003C300DF10601ADF8063000F09FF9BDF979
:1025D80006500DB103B030BD2946204600F09CF9E5
:1025E8004307F7D504222946204600F06DFAE36A2E
:1025F800002BEFD01B68002BECD02946204603B0F7
:10260800BDE83040184700BF3C3000F021B900BF9A
:1026180010B504463C3000F021F92046BDE81040D2
:10262800FFF7CABF81B1B0FA80F210B5520904466B
:1026380040B10A803C3000F033F92046FFF7BCFF78
:10264800012010BD002010BD0020704700B583B0E8
:1026580000233C300DF10601ADF8063000F056F9C4
:10266800BDF9060003B05DF804FB00BF2DE9F04199
:1026780000F13C0482B00D46074601A92046ADF89A
:10268800045000F0EFF8804600283FD0264C6FF049
:10269800630304F1300603E0A6420ED034F9063F86
:1026A800AB42F9DBB4F90230AB42F5DCA288022177
:1026B800384600F0FFF9A642F0D10422002138463E
:1026C80000F0F8F9FB6A23B11B6813B129463846B4
:1026D8009847B8F1000F05D0012387F8393002B0C8
:1026E800BDE8F08104224146384600F0E3F9FB6A70
:1026F800002BF1D01B68002BEED00C4938469847C8
:10270800012387F8393002B0BDE8F08101A92046DD
:1027180000F0E2F84FF6A26301A92046ADF80430B4
:1027280000F0A0F8B2E700BF00110020A2FEFFFFF2
:1027380000231A46FFF79ABF10F1640F03463ADAEE
:1027480010F1AA0F29DBAA33452B24D8DFE803F0C0
:102758004A2323232323232323232323232323231A
:102768002323234C23232323232323232323232308
:102778004E232323232323502323232323232323C9
:10278800232323232323232323522323235456237E
:102798002323485A235C1D48704710F59B7F2FD090
:1027A8000FDD10F1E00F19D0194A184813F1C80FBE
:1027B80008BF10467047174A1448002B08BF104638
:1027C80070476FF4B572904206D0134A13F5AF7F85
:1027D8000E4808BF104670471048704710487047A9
:1027E80010487047104870471048704710487047A5
:1027F8001048704710487047104870471048704795
:10280800104870471048704710487047FC05002072
:10281800BC060020F0050020F40600200407002074
:10282800CC06002020060020A806002094060020E0
:1028380080060020700600205C0600204806002064
:1028480030060020E40600200C0600201C070020AB
:1028580000238160C2800360838070470023036087
:10286800838070470346B0F90400B3F906C0A1B1EC
:10287800604512D0B3F90020013000B5B1F800E08E
:10288800996821F812E001329880012092FBFCF14E
:102898000CFB11221A805DF804FB0020704700BF72
:1028A8000346B0F90400B0B1B3F9022010B421B165
:1028B8009C6834F812C0A1F800C00132B3F90610C0
:1028C80001385DF8044B92FBF1FC01FB1C22988057
:1028D80001205A80704770470346B0F90400A0B140
:1028E800B3F906C0B3F900206244013A10B592FB6F
:1028F800FCFE0CFB1E221A8019B19C6834F81220C9
:102908000A80421E01209A8010BD704703460120AC
:10291800B3F904300B807047092904D818B1243161
:1029280030F8110070470020704700BF092900F2F5
:10293800A9802DE9F84F0646002841D00C461546D7
:10294800DFF86C81594F08EB440318F814105A78D3
:1029580007EBC20317F832C006EB4402587893F825
:1029680003E093F804A093F80590B3F806B0B2F822
:1029780048309D4224D0A2F8485006291DD8DFE8E7
:1029880001F021213C1F041F1F00BEF10B0F7AD05C
:10299800BEF1090F60D9BAF1090F85EA030225EAE9
:1029A80003014FF0000564D9BCF1090F04D80CF1FC
:1029B800240336F813301D436446B9F10B0FC2D116
:1029C800BDE8F88FB6F84820B6F84A0022F0400172
:1029D80001421FFA81FC36D042F0400235EA030377
:1029E800A6F84820E9D0F36A002BE6D09B68002BB4
:1029F800E3D0012130469847DFE70B2813D0092898
:102A08000DD9B9F1090F4ED809F1240336F813305E
:102A180023EA0B054C46B9F10B0F94D1D0E72430CB
:102A280036F810301D40B9F1090F13D809F1240305
:102A380036F81330002DEBD0B9F10B0F4BEA030534
:102A48004C4680D1BCE7B9F10B0FA6F848C07FF41B
:102A58007AAFB5E70023EDE70EF1240E25EA03016E
:102A6800BAF1090F85EA030236F81E0001EA0005EB
:102A78009AD80AF1240A36F81A301A4022EA0102D2
:102A8800154391E77047BAF10B0F84D1BCF1090FD8
:102A980025EA030590D80CF12403644636F8133070
:102AA8002B439DB289E700254C46B4E784130020E8
:102AB80070130020092905D820B101F1240330F84A
:102AC80013301A43FFF732BF092908D838B101F18A
:102AD800240330F8133023EA0202FFF727BF00224D
:102AE800FFF724BF70B50A4C064604F11805FFF736
:102AF8008FFDAC4209D014F8081F0029F9D0002234
:102B08003046FFF713FFAC42F5D1012070BD00BF7E
:102B18008413002010B582B00122044601A901F0F7
:102B280069F818B94FF0FF3002B010BD2046BDF863
:102B380004200321FFF7FAFE012002B010BD00BFF8
:102B480008B528B1B0F84E1000F00AFE012008BD03
:102B5800014600F005FE012008BD00BF10B504467F
:102B680058B1B0F84C10204600F0FAFD204600227B
:102B78000221FFF7DBFE012010BD0146F3E700BF8D
:102B88002DE9F041DFF83880064600F1800500F1B4
:102B9800900755F8044F20465CB108F019FE21460D
:102BA8000246304600F0BCFDBD42F2D10120BDE82E
:102BB800F08101224146304600F0B2FDF4E700BF43
:102BC800E405002008B540B1B0F84C20022142F0DD
:102BD8000102FFF7ABFE012008BD01220221FFF729
:102BE800A5FE012008BD00BF012108B500F0B8FD11
:102BF800012008BD20B1C36A13B11B6903B118478E
:102C08000120704710B582B00122044601A900F0E6
:102C1800F1FF18B94FF0FF3002B010BD2046BDF8E3
:102C280004200121FFF782FE012002B010BD00BF81
:102C380008B528B1B0F84A1000F092FD012008BD8F
:102C4800014600F08DFD012008BD00BF08B528B180
:102C5800B0F8481000F084FD012008BD014600F0DE
:102C68007FFD012008BD00BF01207047D0E9011396
:102C780002681A4491420DD210B5144C0B78E35CEB
:102C880013F0030308D04B1C934243600CD34FF05E
:102C9800FF3010BD00207047184610BDBCF15F0F13
:102CA8000CD19342436007D013F801CB14F80CE021
:102CB8001EF0070FF2D0F4E7C81A10BD4068824230
:102CC80001D9401A10BD081A10BD00BF0D0B002015
:102CD800D0E9002310B48468224493420BD293F9BC
:102CE80000C01C78BCF1000F05DB8C4206D0013314
:102CF80093424360F3D35DF8044B70475C1C9442E5
:102D0800446004D25C788C4201D10233F0E75DF86C
:102D1800044B4360704700BF0368D0E901021344C5
:102D2800984234BF00200120704700BF026830B4C9
:102D3800D0E901431A444C60944213D225462B46ED
:102D4800013593F800C0BCF1200F11D0BCF1090F78
:102D58000ED0181B00288860D4BF1A23172330BC54
:102D68000B70704700201A2330BC88600B707047C6
:102D780095422B464560E2D1EBE700BFF8B51A2330
:102D8800476804460D460B70066883684F601E440A
:102D9800B74210D3FFF76AFF002835DD63689E420B
:102DA800184605D91A783A2A39D03F2A40D0184609
:102DB80011232B7017E03B782A2B0CD03A2BE9D142
:102DC8007B1C6360FFF752FF0028E7DC21D1122348
:102DD8002B70606807E07B1C4360FFF747FF28B94A
:102DE80014232B706068C01BA860F8BD6068B042EF
:102DF80002D203783F2B02D013232B70F3E7013064
:102E0800162360602B70EEE703D10020A86067608E
:102E1800F8BD6368B3421846CAD21A78C5E70133C9
:102E280020466360FFF722FF0028F2DBB6D1CEE729
:102E3800581C152360602B70D5E700BF026830B5B9
:102E4800D0E901431A444C60944205D22378144DCA
:102E5800EB5C13F0030304D100201A2388600B7085
:102E680030BD631C934243600AD301200923886064
:102E78000B7030BDBCF15F0F0FD19A42436007D091
:102E880013F801CB15F80CE01EF0070FF2D0F4E7A9
:102E9800101B0028EADC1A23E0E74068001BF8E76B
:102EA8000D0B0020034600682DE9F043D3E90142E9
:102EB80000EB020C4C60644527D227782B2F1ED0DC
:102EC8002D2F1CD0A04608F10102444EA2EB080E9B
:102ED800104602F1FF390EF1FF3516F807E01EF033
:102EE800040E19D062455A601DD35860001B002893
:102EF8008860D4BF1A220A220A70BDE8F08304F160
:102F08000108C445C3F8048051D800201A225C6027
:102F180088600A70BDE8F083CC4501D92E2F05D012
:102F2800002DF2D011E012F8017BCFE762455A601C
:102F3800F6D2ACEB020712F8010B305C400745D51E
:102F48000EF1010E5A60BE45F5D158688445CCD9BA
:102F580005462F4615F8012B202A2AD0092A28D001
:102F68006745C2D202F0DF02452ABED10137BC450F
:102F78005F60BAD93A4601371578202D22D0092D3D
:102F880020D0944503D92B2D17D02D2D15D05A6854
:102F98009445AAD9002512F8017BF75D7F0719D55A
:102FA800944505F101055A60F5D810469EE7677803
:102FB80089E7AC455D6098D0CBE7013294455A600B
:102FC80093D9E7E7BC455F608FD0D3E77544002D00
:102FD8009BD0BAE7002D88D0586887E70D0B0020F2
:102FE80002682DE9F043D0E9014302EB030C4C6081
:102FF800644515D225782F2D34D027467A1C314EBA
:1030080016F805E0A2EB0709134602F1FF381EF097
:10301800030F31D0944542601BD912F8015BEFE7EA
:1030280000221A230B701346446018468A60BDE8D4
:10303800F08301339C4543600BD91A46174612F8B2
:1030480001EB16F80E501346AD072ED0944542609A
:10305800F4D11B1B002B8B60E2DD0C2218460A7092
:10306800BDE8F083671CBC45476001D96578C5E7B2
:10307800012213468A60F0E7B9F1010F13D0C44565
:1030880001D92D2D19D043689C45E2D91A78B55C31
:103098006D0705D55D1CAC45456010D95A782B469F
:1030A8002E3A012AC5D94368D3E7BC45EBD9BEF10E
:1030B8002D0FE8D17B1C4360E6E74260E4E72B1B59
:1030C800C8E700BF0D0B0020D0E90032F0B48468D7
:1030D8004A6023449A4202D21478232C09D04FF034
:1030E8001A0C002381F800C0426018468B60F0BCBF
:1030F8007047541CA3424460F1D9547804F0DF0CA3
:10310800BCF1480F32D0622C16D012D8422C13D002
:10311800512CE4D1941C9C424460E0D29B1A27466F
:103128000025023B17F8016B303E072E35D90723DF
:1031380010E0712CD3D1EDE7941C9C424460CED2B0
:103148009B1A27460025023B17F8016B303E012EDB
:1031580028D908230B70002DC1D043684C601B1B75
:10316800002B28DD981C8B60F0BC7047941C9C4297
:103178004460B4D29B1A26460025104F023B16F82D
:1031880001CB17F80CC01CF0440F12D00135466073
:10319800AB42F4D106230B70DFE7013547609D424F
:1031A800C0D1C4E701354760AB42CDD108230B70CD
:1031B800D3E70623CEE7002098E700BF0D0B0020D9
:1031C800F8B5D0E90173066804460D464F601E4401
:1031D800B74206D300231A2218462A706760AB60EC
:1031E800F8BD3978222914D02729F3D17B1C4360F4
:1031F8000E232B70FFF76CFD43689E42EAD91A78BC
:10320800272AE7D10133D81B63600028A860E1DDD5
:10321800F8BD7B1C43600F232B70FFF759FD4368F3
:103228009E42D7D91A78222AD4D1EBE702680346FE
:1032380080682DE9F04102445C6894424C6002D2F7
:103248002078232807D000221A20087010465C60D6
:103258008A60BDE8F081601C8242586036D9607887
:103268001E4E355C6D07EED53028ECD0A0F1300C41
:10327800A51CBCF1000F5D6025DDAE46002072453F
:10328800754600EB800021D09EF800700EF1010E0B
:1032980016F80780303F18F0040F07EB400013D0F2
:1032A800BCF1010C7546C3F804E0E8D1844605EB8F
:1032B8000C009042586009D80D23281BC1E9015C15
:1032C80060440B70C5E7F2D0AA42BCD800201A248B
:1032D80088600C705A60BDE8F08100BF0D0B0020BB
:1032E800026803468068F0B502445C6894424C600A
:1032F80002D22078282805D0886800281CDD1023F1
:103308000B70F0BD601C9042586015D2134F0546F3
:1033180010F801EBAEF12006AEF1220C5E2E5FFA3A
:103328008CFC10D8BCF1190F47FA0CF601D8F60737
:1033380009D590425860EAD100221A200870104638
:103348005C608A60F0BDAA42F6D9BEF1290FF3D1BC
:103358000135281B5D608860CFE700BF1CFFFFFDBB
:10336800D0E9002310B484684B602244934202D20F
:103378001A782C2A09D04FF01A0C002210465DF852
:10338800044B8A6081F800C0704701334FF0000C8D
:1033980001224360F2E700BFD0E9002310B484683B
:1033A8004B602244934202D21A783B2A06D000206E
:1033B8001A225DF8044B88600A70704701220133B5
:1033C8005DF8044B436010460A708860704700BF80
:1033D800D0E9002310B484684B602244934209D397
:1033E80000241A220A702246436010468C605DF859
:1033F800044B704793F800C0BCF10D0F0ED0BCF120
:103408000A0F1C4613D04268D21A002A8A60E7DDE8
:10341800052310465DF8044B0B7070475C1CA242F4
:10342800446008D993F801C0BCF10A0FEBD101340C
:10343800E21A4460E9E701231A468B60E8E700BF17
:103448000622034908B500F06BF9012008BD00BF4A
:103458003807002010B582B0044601A9FFF7E2F84A
:1034680001A9204600F0B4F9012002B010BD00BF48
:1034780010B50446FFF7EAF80146204600F070F957
:10348800012010BD10B504460721FFF745FA014693
:10349800204600F065F9204600220721FFF746FA8A
:1034A800012010BD10B504460821FFF735FA014682
:1034B800204600F055F9012010BD00BF10B582B0BC
:1034C8000122044601A900F095FB10B9012002B0C1
:1034D80010BD2046BDF804200821FFF727FA012077
:1034E80002B010BD0022072108B5FFF71FFA01201E
:1034F80008BD00BF10B5144622B30A788C46063AB8
:10350800052A1DD8DFE802F00E181A1C03030A2248
:103518002146DCF804004BB100F040FF003818BF2A
:10352800012010BD10222146DCF8040000F042FF03
:10353800003818BF012010BD0822F4E70222F2E784
:10354800002010BD0249FFF7F3F8204610BD00BF68
:10355800CAFEFFFF10B5144622B30A788C46063A15
:10356800052A1DD8DFE802F00E181A1C03030A22E8
:103578002146DCF804004BB100F028FF003818BFE2
:10358800012010BD10222146DCF8040000F02CFFB9
:10359800003818BF012010BD0822F4E70222F2E724
:1035A800002010BD0249FFF7C3F8204610BD00BF38
:1035B800CAFEFFFFF0B514468DB005460846023C2A
:1035C800009303A91346E4B2212200F0A7FD0646A2
:1035D8000E2C1CD8154B53F824702B6B002B1CDCBD
:1035E800002437B1EB6A3946022228465B689847BF
:1035F800044436B1EB6A324603A928465B6898470B
:1036080004442B6B204601332B630DB0F0BD2B6BAC
:10361800002B01DC0024ECE70027EB6A01220449B7
:1036280028465B6898470446DBE700BF480500204A
:1036380004120020F0B595B01F46044610469DF9C7
:10364800685039469DF86C3003AA0095023D0193F5
:103658004123EDB200F0DEFD06460E2D1CD8154BB9
:1036680053F82570236B002B1CDC002537B1E36A67
:103678003946022220465B689847054436B1E36A1A
:10368800324603A920465B6898470544236B2846C1
:103698000133236315B0F0BD236B002B01DC00253B
:1036A800ECE70027E36A0122034920465B68984754
:1036B8000546DBE748050020041200202DE9F04FFD
:1036C80085B01D460F4616460E9B0446129A0830D2
:1036D80013990393119B0192902202910021DDF826
:1036E8005080BDF954900093DDE90FBA07F0AEFEA3
:1036F800039B4A46414620462760E662E565C4F8D2
:103708008CA0C4E9213B009BC4F89030019BE36086
:10371800029B636005B0BDE8F04FFEF775BF00BFC0
:10372800F8B5036B04460E461546002B0EDC002741
:103738003DB136B1E36A2A46314620465B68984770
:103748000744236B384601332363F8BDC36A01225B
:1037580002495B6898470746EAE700BF0412002061
:1037680001230A22FFF726BF0023FFF723BF00BF6C
:1037780010B582B000219DF91040CDE90041FFF756
:1037880059FF02B010BD00BF70B588B004462021B3
:10379800684600F0F3FD236B0546002B0EDC00267F
:1037A80035B1E36A2A46694620465B68984706446D
:1037B800236B30460133236308B070BDE36A0122EE
:1037C800024920465B6898470646E9E7041200204C
:1037D8002DE9F04F0C4683B00746B1F90000FEF71B
:1037E800ABFF824607F0F4FF0123B4F900108046CE
:1037F8000A223846FFF7DEFE3B6B0546002B59DCF4
:103808000024FB6AB8F1FF0F4FF001022D495B68F5
:10381800384628BF4FF0FF0898470444FF26DFF8D2
:10382800A490631901931FE0A5EB0A040134A64292
:103838002246A34638D91CB1FB6A5B689847834681
:10384800361BFB6AA8EB04040122013E5B6849466B
:10385800384605EB020A9847B442019B584428BFF2
:1038680034460344A046019341464A46504600F078
:103878003BFC054651463846002DD5D1B8F1000F1E
:1038880006D0FB6A4246514638465B6898478046F0
:10389800FB6A012238460B495B689847019B404404
:1038A800184403B0BDE8F08F08F1FF38B8F1000FF5
:1038B800EED0E6E7FB6A0122034938465B68984781
:1038C80004469EE7640700200412002070B50A230E
:1038D80084B00D46232204460DF1060128468DF8D2
:1038E80004201A4600F08EFC0DF1060007F070FF68
:1038F800236B00F13002C4F89450002B05468DF874
:10390800052009DC0026E36AAA1C01A920465B6899
:103918009847304404B070BDE36A0122024920464A
:103928005B6898470646EEE70412002010B5D0F809
:10393800944094420CD3A41A0346C0F8944064B14E
:103948004AB141B1DC6A18466368BDE810401847BF
:103958000449FEF7EDFE002010BD006B013018632E
:10396800EEE700BFCAFEFFFF30B5144683B02AB3A6
:103978000B788C46082B0DD90A3B012B0CD8114625
:10398800DCF8040000F03EFD051E18BF012528469E
:1039980003B030BD052B03D80025284603B030BD41
:1039A80000236A46FFF7D6FD0546DDE9000105F06C
:1039B800ABFAC4E90001284603B030BD02491546F8
:1039C800FEF7B6FEE9E700BFCAFEFFFF2DE9F041AA
:1039D80084B005460F4601A9FFF7A8F939460646FF
:1039E8002846FFF771FB044640B101A92846FFF7B6
:1039F8009DF93044204404B0BDE8F081394628469A
:103A0800FFF71CFA04460028EFD139462846FFF78D
:103A180049FA044698B939462846FFF7D1FB0446C7
:103A28000028E2D139462846FFF700FC0446002862
:103A3800DBD139462846FFF753FC0446D5E701A9F0
:103A48002846FFF773F901A980462846FFF7C8FA08
:103A58000028CADDBC6840440B2304443B70BC60AA
:103A6800002CD8D0C1E700BF2DE9F8430C46002947
:103A780042D04FF01A09054681F80090C66943699B
:103A88008769334400269F42C1E9016627D2436B08
:103A980000F114082BB14046FFF762FC237883BB82
:103AA8006B6B0133214640466B63FFF78FFF23782A
:103AB8000B2B0ED8052B0FD800261A2328466FF09B
:103AC80096012370C4E90166FEF732FE3046BDE870
:103AD800F8830D3B032BEFD80120BDE8F88322B90A
:103AE800092310460B70BDE8F8836FF06C01FEF7F0
:103AF8001FFE3046BDE8F8830749FEF719FE204649
:103B0800EBE728466FF0660184F80090C4E9016687
:103B1800FEF70EFE3046E0E7CAFEFFFF70B50D4621
:103B280084B009B301A90646FFF79EFF044658B1C1
:103B38009DF80430082B0AD8052B1CD86FF06701B4
:103B480030460024FEF7F4FD204604B070BD0A2B71
:103B580011D00B2BF2D1002430466FF08901FEF70B
:103B6800E7FD204604B070BD2C460749FEF7E0FD8E
:103B7800204604B070BD2A4601A93046FFF7F4FE7E
:103B8800204604B070BD00BFCAFEFFFF30B50C462A
:103B980085B0F1B101A90546FFF766FF58B19DF858
:103BA8000430082B09D8052B19D828466FF067016F
:103BB800FEF7BEFD002005B030BD0A2B0FD00B2B41
:103BC800F3D128466FF08901FEF7B2FD002005B059
:103BD80030BD0749FEF7ACFD204605B030BD0023D7
:103BE800224601A92846FFF7B5FC05B030BD00BF45
:103BF800CAFEFFFF30B50C4685B0F1B101A90546F4
:103C0800FFF732FF58B19DF80430082B09D8052B6F
:103C180019D828466FF06701FEF78AFD002005B025
:103C280030BD0A2B0FD00B2BF3D128466FF089013A
:103C3800FEF77EFD002005B030BD0749FEF778FD90
:103C4800204605B030BD0123224601A92846FFF7CA
:103C580051FC05B030BD00BFCAFEFFFFF0B5182506
:103C68001646074685B00D700C4642684FF0FF3384
:103C7800002501204A6000E0A368034401A93846F2
:103C88000135A360FFF7A2FE9DF80420034601A9B1
:103C98001A2A38460BD0A2681A44A260FFF760FBC4
:103CA8000028E9D106B13560A06805B0F0BD002351
:103CB8004FF0FF352270A360F4E700BF30B5002550
:103CC80087B00446856168460292CDE9001103A9D0
:103CD800FFF72CF821466846FFF750F8A8421EDA8D
:103CE800009BA560636023611A23656123702373B9
:103CF80003A96846FFF76CFB10B36846FFF70CF89A
:103D08009DF80C30012BDDE9002032D0A3F105032A
:103D1800801AB3FA83F35B09237707B030BD03A990
:103D28006846FFF703F8A84228DC019A1A2303A97A
:103D38006846656122612373FFF74AFB0028DCD1DE
:103D480003A96846FFF728FB05466846FEF7E4FF27
:103D58002843D5D1019B01251922606158199DF886
:103D68000C301A212270012B009AA5602173226160
:103D7800CCD10223801A237707B030BD04F1180292
:103D880004F10C016846FFF769FFB1E72DE9F04F30
:103D98001A23002706462DED028B89B006978DF869
:103DA80014300797002800F0E58001238A469146E1
:103DB80000F1640B076380F83830029304E0C145D2
:103DC8006FDDC244A9EB08094A4651465846FFF739
:103DD80075FF96F864308046192B6CD0F36E002B73
:103DE800EDDD594605A800F023FD3468B16E206862
:103DF800F26E00286DD008EE10BACDF80C900C25A4
:103E0800C1469346B0460E4606E0D8F800406059D1
:103E18002C440C35002856D000235A463146CDE9AB
:103E2800007700F0A1FB0028EFD0464618EE10BA44
:103E3800C846DDF80C90F26EB36E3262B36213447A
:103E4800726F34617762C6E90522B26FF26113F8C6
:103E5800015C96F83830A5F13F05012BB5FA85F5D8
:103E68004FEA551502D0002D40F08B80636886F824
:103E78003970C6F89470C6E90C77002B48D03046E4
:103E88009847012896F839303BD00293002B4DD043
:103E98000023029305ABC1459BE8070083E80700B0
:103EA8008FDC96F83830002B50D0029809B0BDEC62
:103EB800028BBDE8F08F6FF064013046FEF738FCE6
:103EC800002302937BE7464618EE10BAC846DDF891
:103ED8000C9043460AEB0801581E4BB111F8012D0E
:103EE8000D2A01D00A2A03D10346581E002BF5D10A
:103EF80000226FF07001304602925246FEF7B6FB80
:103F08005DE7002BC4D196F838200AB1002D3FD1C7
:103F1800F26973691344B2699A42BBD26FF06B01BC
:103F28003046FEF705FC00230293B3E76FF0C701A4
:103F38003046FEF7FDFBF26973691344B2699A4291
:103F4800A8D296F83930002BA4D1E7E7F36A022209
:103F5800114930465B689847F36A002BA5D0DB68A7
:103F6800002BA2D030469847029809B0BDEC028BCE
:103F7800BDE8F08F0290029809B0BDEC028BBDE855
:103F8800F08FF36A0122054930465B6898476DE770
:103F980086F83830BCE700BF34070020300700201F
:103FA800F8B505461746002A43D0D0E901341B1B53
:103FB8009A4222DAC06801262044002403F0C6F998
:103FC800AB68EA683B4405F16407AB60D454AA685F
:103FD800E968121B38462144FFF770FE95F88030D7
:103FE8000444012B13D095F864201A2A00D113B188
:103FF800AA68A242ECD83046F8BD0026C3686FF420
:10400800B57186601E70FEF793FB3046F8BD2246F8
:10401800E9682846FFF7BAFE0646D5E90223121BCF
:104028001919184607F096F9AA68121B0024AA6005
:10403800CEE7D0E90232D754D0E90221FFF7A6FE35
:104048000646AF603046F8BD2DE9F041074684B01A
:104058000D4616461C4693B9002A42D08D1E984636
:10406800013400230A2235F8021F3846FFF7A2FA66
:10407800A6428044F4D1404604B0BDE8F08100F087
:1040880007FC84421CD071003846FFF71FFC8046AD
:10409800002EF0D0023D002435F8020F013400F064
:1040A800F9FB0222ADF80E000DF10E013846FFF7BC
:1040B8003DFCA6428044EFD1404604B0BDE8F08103
:1040C8007200384611460192FFF700FC8046019ABB
:1040D80029463846FFF72AFC8044404604B0BDE82C
:1040E800F0819046C7E700BF0144884213D010B55D
:1040F800864670461EF8014B5CB1944601E09C422E
:1041080006D01CF8013B002BF9D17145F1D11846B6
:1041180010BD204610BD0020704700BF2DE9F041BA
:10412800344F86B00E4614469E4601AD84469DF82F
:1041380030800FCF0FC53B682B70BCF1000F0BD13F
:10414800002C4DD0302301203370A04249D20023E7
:10415800335406B0BDE8F081AEF10203DBB20E2B9A
:104168000FD9BCF1000F244B3EDAB8F1000F3BD059
:10417800CCF1000C002C3AD02D22012032700A22FA
:104188000AE01E4A18EADC781D49D25651F8233055
:1041980001D00A2AECD000209C4503D2B3FBF2F3ED
:1041A8006345FBD8451E35440CE011F814EC9A42DF
:1041B80000F1010005F801EFB3FBF2F10B46C4D89A
:1041C8008442C2D9A042BCFBF3FE5FFA8EFE0EF118
:1041D80018010EFB13CC6944E7D306B0BDE8F081A3
:1041E800204606B0BDE8F0810A220020D4E7204628
:1041F8000A22D1E74007002000CA9A3B9805002010
:10420800A805002010B5002482B00094FFF786FFAF
:1042180002B010BD2DE9F04F554D89B006460F4646
:104228009646994603AC01929DF948A09DF84CC06A
:104238000FCD0FC42B68237056EA070311D1B9F1CB
:10424800000F2DD030234FF001088EF80030C845FC
:1042580027D20023019A404602F8083009B0BDE889
:10426800F08FBAF1080F71D0BAF1100F1DD0BAF162
:10427800020F6BD0002F6DDABCF1000F6AD07642C6
:1042880067EB4707B9F1000F6CD1C8460A22394DD0
:10429800394C4FF0000B284692462146154612E04D
:1042A800C846404609B0BDE8F08F00254FF080545D
:1042B800AE4277EB040352D228464FEAEA7B4FF02E
:1042C8000008214655465B462A4604F053FE8642BE
:1042D80077EB0103F7D305460C4608F1FF33019A43
:1042E8004FEAEA7BD31800931DE010F8143C2846E7
:1042F800009908F1010801F8013FA2FB053C009173
:104308002146F31A02FB04CC52461E465B4667EB75
:104318000C0704F02FFE5545054674EB0B040C46BC
:1043280095D3C14593D92A4623463046394604F0E9
:1043380021FE00F0FF02C0B2C84500F120030DEBDA
:104348000300D2D3404609B0BDE8F08F00254FF0F6
:104358000044ADE7074D4FF00A0A074CA8E74FF0B5
:104368000008BAE72D23019A4FF0010813708DE772
:10437800400700200000E8890423C78A10B582B0EE
:104388000446054A8DED000B06F05AFF204602B0A0
:10439800BDE8104007F01CBAE805002030B583B02E
:1043A8000D46044601A906F005FC019B2860181B70
:1043B80003B030BD30B583B00D46044601A906F000
:1043C800A7FC019B2860181B03B030BD30B583B033
:1043D8000D46044601A906F065FD019BC5E90001EB
:1043E800181B03B030BD00BF30B583B00D4604467E
:1043F80001A906F033FE019BC5E90001181B03B0B3
:1044080030BD00BF30B583B00D46044601A906F0A3
:104418001FFB0198001B85ED000B03B030BD00BFEA
:104428008B421FD370B5144682B00D460A4621460A
:104438001E4607F05DF890B9069BABB1AE4202D1BB
:10444800012002B070BD2C440A2201A9204606F0C2
:10445800B1FB019B02461B1B2B449E4214D000203B
:1044680002B070BD00207047AE42E9D9013D611E1F
:1044780007486219314401E09142E1D012F8013F46
:10448800C35C5B07EBD5F7E7069B01201A60E7E7FB
:104498000D0B00202DE9F04182B0064617469846DC
:1044A800089CA1B34A1E835C232B34D000F1FF3E45
:1044B80000242C4B09E013F805C00CF0030CBCF1E8
:1044C800020F06D00134A14203D01EF8015F002D6F
:1044D800F1D141450CD0A04515D142463946304668
:1044E80007F006F8B0FA80F0400902B0BDE8F081A4
:1044F8000A463046394606F0FBFF0028EBD101207A
:1045080002B0BDE8F081002002B0BDE8F08141456D
:104518000C46E0D1ECE712B3411E0025114807E034
:10452800C35C03F00303022B06D00135AA4203D073
:1045380011F8013F002BF3D1114643463A46304665
:104548000094FFF76DFF0028CFD143463A4629462D
:104558003046089402B0BDE8F041FFF761BF154648
:10456800EAE700BF0D0B00202DE9F04F8B4687B01E
:10457800CDE90402039307F02BF905990446584640
:1045880007F05CF8049A8046131913F8013C3F2B96
:1045980000F0DF8013785B2B00F0E68000210491A7
:1045A8003A2B01D10132013C9BF800303A2B03D160
:1045B800B8F1010F00F200814FF0000A0BEB080977
:1045C80010460219214690425FD0844667461CF87F
:1045D800015B002D00F0B480934E3F23AB4258D0CE
:1045E80016F8013B002BF9D194456746EED1CB452F
:1045F8001D46A44652D14446BCF1000F04DD4318C1
:1046080013F8013C232B72D0002300935A4623460B
:10461800FFF740FF002856D0A8EB0403B5FA85F24F
:1046280053EA05014FEA521251D0002B00F0AB803B
:10463800002A4BD1002B00F0A680002D46DD1BF888
:1046480004200BEB04063978914202D13A2900F094
:104658009180012D3AD07878824257D0022D35D0FA
:10466800BC78A24232D15D2930D13A2A2ED15B28BA
:104678002CD1F81CEC1E06F1010B03F1FF380219CE
:1046880021460BEB080990429FD10746A446002516
:1046980002E0391A8C46651ACB45ACD05A46964684
:1046A80001329EF80060002EA5D0604C3A239E424D
:1046B80006D014F8013B002BF9D19145EFD19AE7C8
:1046C800AEEB0B0498E73B785D2B03D0002007B0D6
:1046D800BDE8F08F7B783A2B35D0022DF6DD5B2BC9
:1046E800F4D1BB783A2BF1D1F81CEC1E69E7039B97
:1046F80053B1109A924507D2119A43F82A2003EB36
:104708008A030AF1010A80E70023FAE7A2F13A04D2
:104718005B29B4FA84F44FEA541401D1002C54D123
:104728005D299BD1002C99D003F1FF38049B06F139
:10473800010BB81C013BAC1E0BEB0809049340E7C6
:104748001746A446A8E7049BB81CAC1E013B04937B
:1047580037E700F1FF381BF808303F2BB6D1137844
:10476800013C5B2B7FF41AAF01215378013C0132E5
:10477800049115E706F1010B03F1FF38781C6C1E54
:104788000BEB08091DE7002DA1D03978049E07EB33
:10479800050E2C46BC460EF1FF38002940D0224AAF
:1047A8003F2399421DD012F8013B002BF9D1E04577
:1047B80036D01CF8011FF0E79BF801302A2B85D072
:1047C8000BF1010B08F1FF38F6E603F1FF38049B03
:1047D80006F1010BB81C0133AC1E0BEB080904935E
:1047E800EFE6ACEB070423465B2913D05D2900D123
:1047F800013E013401332744ED1A36B9002D0BDD93
:1048080039785B297FF462AFC1E7002D3FF45FAFD1
:104818003978BCE70136ECE70CBF0120002056E7E9
:104828009EF800102B46DFE7851100208D1100202F
:104838000B4601B370B54D68FDB18C68CCB14268C8
:104848000646A2B1816891B1287800F0EF002A28C5
:104858000DD010782A280AD002EB010C1CF801EDC3
:104868000A460139BEF13A0F09D00029F6D10120D4
:1048780070BD204670BD08467047284670BDA81A0E
:104888001444586071689C6006F064FDEFE700BF4F
:104898000220704740BA80B2704700BF10B5054B80
:1048A80004468068236010B10368DB6B9847204694
:1048B80010BD00BFF008002010B5074B0446806803
:1048C800236010B10368DB6B98472046142102F07F
:1048D800D9FD204610BD00BFF008002010B4054CDB
:1048E8004160046000240273046184605DF8044B35
:1048F800704700BFF008002000231B60FFDE00BFE8
:10490800704700BF704700BF704700BF10B504462E
:1049180050F8083BDB689847204610BD084B10B597
:104928001A6882B0044640B106498A4205D0126826
:1049380001A903F1080001949047204602B010BD78
:10494800182D0020CC0700200348044B044A0549D1
:10495800036004F04DB900BF182D0020CC070020DB
:104968007C180020FD2C00000020704710B504467C
:1049780050F8083BDB689847204610BD00231B60B1
:10498800FFDE00BF704700BF704700BF704700BF21
:1049980008B56920FFF7C2FF9FED010A08BD00BFF7
:1049A8000000C07F6920FFF7B9BF00BF6920FFF78B
:1049B800B5BF00BF6920FFF7B1BF00BF0F4B1A6832
:1049C800D10710B504D50E4B1A68D2070AD510BD09
:1049D8000C4901240C480D4A01600D491C6004F083
:1049E80007F9F0E7012407490A481C600160074AF3
:1049F8000749BDE8104004F0FBB800BF482F00206D
:104A08004C2F0020BC070020402900207C180020E3
:104A18005D2D0000682900200146044B0322002078
:104A2800C96803EB01139A60704700BF0041084052
:104A3800C1680022024B104603EB01139A607047CD
:104A4800004108400369044ADB6810B5044640F891
:104A5800182B9847204610BD50080020064BDFED64
:104A6800076AD3ED007A9FED067AF8EE677A86EE4C
:104A7800A70A80EE070A7047501800200000804FF0
:104A880000247449064A036910B50446DB6840F8F7
:104A9800182B98472046382102F0F4FC204610BD18
:104AA800500800206920FFF739BF00BF6920FFF7D1
:104AB80035BF00BF134B9FED147AD3ED007AF8EEA3
:104AC800677A10B527EE800A0446B4EEC70AF1EEFD
:104AD80010FA0ADCFCEEC07AC2680C490020120108
:104AE80017EE903A013B535010BD6FF06300FFF78B
:104AF80015FFE368054A6FF001011B01002099507A
:104B080010BD00BF501800200000804F0041084031
:104B1800F8B50D4C0D4E0E4FA4F1E00554F8183CB5
:104B2800A4F1180220469B6BB34209D154F8083C03
:104B380044F8187CDB689847383CAC42EED1F8BDA5
:104B480010469847F8E700BF502A0020352E00008D
:104B5800500800201E4B01219FED1E7AD3ED007AEC
:104B6800C268F8EE677A70B527EE800A1A4D0026FB
:104B7800044605EB0213B4EEC70A9E60D960F1EE55
:104B880010FA12DCFCEEC07A110117EE903A013BE4
:104B98004B51236811499B698B4214D10E4B032159
:104BA800002003EB0213996070BD6FF06300FFF7FC
:104BB800B5FEE2686FF001011301595123680749F6
:104BC8009B698B42EAD020469847002070BD00BF01
:104BD800501800200000804F00410840092E0000B6
:104BE80002682B49D3698B4210B504462DED028B20
:104BF800B0EE408A49D1C0680021264B03EB001370
:104C08009960136B24498B4239D1244B9FED247A48
:104C1800D3ED007AF8EE677A27EE880AB4EEC70A71
:104C2800F1EE10FA16DCFCEEC07AE16819480901C9
:104C380017EE903A013B0B5093691A4A934218D1E8
:104C4800E1680322134B002003EB0113BDEC028B38
:104C58009A6010BD6FF06300FFF760FEE36822689A
:104C68006FF001001B010B49585093690D4A93429C
:104C7800E6D0204698470020BDEC028B10BDB0EE70
:104C8800480A204698472268D6E798472268B8E736
:104C9800212E000000410840A52E000050180020D9
:104CA8000000804F092E000070B551F8083B0446FB
:104CB8002DED028B8CB00272B0EE408A04A80293EC
:104CC8005B689847236904F11800DB6801909847EE
:104CD800029B04A9244A0198236102929B68984781
:104CE800029B04A8DB689847237A0BB3E36800208B
:104CF80022681E4D166B1A0105EB0311012388600B
:104D0800CB601B4B9E4218D11A4B9FED1B7AD3EDFB
:104D1800007AF8EE677A27EE880AB4EEC70AF1EE51
:104D280010FA13DCFCEEC07A17EE903A013B5351AF
:104D380000200CB0BDEC028B70BDB0EE480A2046D6
:104D4800B04700200CB0BDEC028B70BD6FF0630063
:104D5800FFF7E4FDE3686FF0010200201B015A51E0
:104D68000CB0BDEC028B70BDBC07002000410840B0
:104D7800A52E0000501800200000804F30B4214CB0
:104D88000020214BE4692149214A650619605860D1
:104D9800C3E9030201D41F48006800241948996335
:104DA800C069DC6301249A645C64440601D4194830
:104DB8000068144800241967C0695C67022440062B
:104DC800C3F88020DC6701D4124800680D4D002428
:104DD800C3F8A8100320E969C3F8AC40C3E92D0261
:104DE8004B060CD40B4B0C4A1B68B3FBF2F30B4C71
:104DF80000200B4A23600B4930BC03F0F9BE18238E
:104E0800F5E700BF00C00F4090290020500800209F
:104E1800BC0700203818002040420F00501800201E
:104E28007C180020012F000069207047B7EE000AA7
:104E3800704700BF044A936823F00803936093689F
:104E48001B07FCD4704700BF00400D40044B9A6814
:104E580022F008029A60986810F00800FBD17047A9
:104E680000400D40084A936800B523F0080383B05A
:104E7800936093681B07FCD40C21019002F002FB9D
:104E8800019803B05DF804FB00400D406920FFF76E
:104E980045BD00BF0000000090ED026ABFEE007B38
:104EA8000F4AB7EEC66A9FED0C5BA6EE057BFCEEDB
:104EB800C77B17EE903AB3FA83F3C3F120031B01C3
:104EC800DBB29360936843F00803936093681B0711
:104ED800FCD50020704700BF8DEDB5A0F7C6A03FF8
:104EE80000400D40002A45D00368254ADB699342FB
:104EF80070B504462DED028BB0EE408A8CB03BD1E4
:104F0800204A936823F00803936093681B07FCD436
:104F180051F8083B04A85A680293904766683546DA
:104F280055F8083BDB6828469847029B164A2846EE
:104F380004A9029233609B689847029B04A8DB6827
:104F48009847DFED127AB4EEE78AF1EE10FA0ED444
:104F5800DFED0F7AB4EE678AF1EE10FA37FE888A31
:104F6800002084ED028A0CB0BDEC028B70BDB0EE5F
:104F7800678AF5E769207047019198470199C7E763
:104F88003D32000000400D40BC0700200024F441E1
:104F9800002474490000000001682D4ACB6993423F
:104FA80010B504462DED028BB0EE408A49D1294A4E
:104FB800936823F00803936093681807FCD4DFED27
:104FC800267AB4EEE78AF1EE10FA2CD4DFED237AD4
:104FD8008B69B4EE678A224AF1EE10FA37FE888AA6
:104FE800934284ED028A26D1B7EEC80A194ABFEE69
:104FF800007B9FED156BA0EE067BFCEEC77B17EEE2
:10500800903AB3FA83F3C3F120031B01DBB2936038
:10501800936843F00803936093681B07FCD500204E
:10502800BDEC028B10BD8B69B0EE678A0C4A9342C7
:1050380084ED028AD8D0204698470020BDEC028B28
:1050480010BD98472168BAE78DEDB5A0F7C6A03F17
:105058003D32000000400D40E0FDF341002474495A
:105068008932000010B5094C094B0A4A20460A4902
:10507800236003F0BDFD0948094B064A0949C0E908
:105088000034BDE8104003F0B3BD00BF702A002013
:10509800BC0700207C1800205D2D0000B82F0020E0
:1050A800980800202532000038B5064B04460360F6
:1050B800EFF3108572B601F0CDFD05B962B6204652
:1050C80038BD00BF1C08002090F81CC04160BCF12E
:1050D800020FC26001D18368184701F055BD00BFB7
:1050E800024A0349034803F083BD00BF7C1800202F
:1050F800993400005418002038B5064CA4F1A005D6
:1051080054F8083C2046283CDB689847AC42F7D165
:1051180038BD00BF182B002038B5064CA4F1A005F7
:1051280054F8083C2046283CDB689847AC42F7D145
:1051380038BD00BFB82B002038B5064CA4F1A00537
:1051480054F8083C2046283CDB689847AC42F7D125
:1051580038BD00BF582C002038B5064CA4F1A00576
:1051680054F8083C2046283CDB689847AC42F7D105
:1051780038BD00BFF82C0020784A106810F00100F4
:1051880010B50BD1764B0121764C11601C60764A24
:1051980076499C621C659C6703F02AFD744B1A686B
:1051A800D10704D40120734A734918601160734A07
:1051B800106810F001000BD1714B0121694C11608E
:1051C8001C60694A6F499C621C659C6703F010FD6E
:1051D8006D4B1A68D20704D401206C4A6C491860D8
:1051E80011606C4A106810F001000BD16A4B012164
:1051F8005C4C11601C605C4A68499C621C659C6739
:1052080003F0F6FC664B1A68D40704D40120654AFB
:10521800654918601160654A106810F001000BD1EB
:10522800634B01214F4C11601C604F4A61499C62DD
:105238001C659C6703F0DCFC5F4B1A68D00704D43C
:1052480001205E4A5E49186011605E4B1A68D107FA
:1052580070D55D4B1A68D20776D55C4B1A68D407AF
:1052680004D401205A4A5B49186011605A4B1A68E5
:10527800D00704D40120594A594918601160594B84
:105288001A68D10704D40120574A58491860116098
:10529800574B1A68D20704D40120564A5649186059
:1052A8001160564B1A68D40704D40120544A554952
:1052B80018601160544B1A68D00704D40120534A6F
:1052C800534918601160534B1A68D10704D4012060
:1052D800514A524918601160514B1A68D20704D4D8
:1052E8000120504A504918601160504B1A68D40781
:1052F80004D401204E4A4F49186011604E4B1A6879
:10530800D00704D401204D4A4D49186011604D4B17
:105318001A68D10704D401204B4A4C49186011601F
:105328004B4B1A68D20704D401204A4A4A491860EC
:10533800116010BD0B49012448480B4A01604849D7
:105348001C6003F055FC84E7064901244548064AD9
:10535800016043491C6003F04BFC7EE7602F00208E
:10536800982A0020BC0700207C180020E93400009F
:10537800502F0020C42F002000C01D40742F002093
:10538800382B002009350000642F0020D42F00207E
:1053980000001E40882F0020D82B0020293500004F
:1053A800782F0020E42F002000401E409C2F002072
:1053B800782C0020493500008C2F0020F42F002085
:1053C80000801E40482F00204C2F0020542F002022
:1053D800C82F002020C01D40582F0020CC2F0020AF
:1053E80040C01D405C2F0020D02F002060C01D4011
:1053F800682F0020D82F002020001E406C2F00208E
:10540800DC2F002040001E40702F0020E02F0020DD
:1054180060001E407C2F0020E82F002020401E4006
:10542800802F0020EC2F002040401E40842F0020B9
:10543800F02F002060401E40902F0020F82F002001
:1054480020801E40942F0020FC2F002040801E400A
:10545800982F00200030002060801E404029002046
:105468005D2D000068290020F0B5046801892288B4
:10547800914252D20346D4F802005A89950050F856
:105488002220C2F3850EC2F3072112F0030CA3F801
:1054980010E099751FD10120C2F307464FEA127C2C
:1054A8009882C2F303605A68A3F812C0324460B30A
:1054B800101A01F0C00CBCF1800F18629A6101D17A
:1054C80002B1126801F00E01DA61082927D0002222
:1054D80001205A62F0BDBCF1010F3AD0BCF1020FB5
:1054E80025D042195068D56896681FFA85FC050AC8
:1054F80040B24EEA851E15695A68A3F810E0324496
:105508009D82A3F812C00028D2D101F0300001F02A
:10551800C00C202818D00020CDE70020F0BDD4F81A
:1055280006200120D98952F821205A62F0BD28446A
:10553800120C051DE0CD9A822A0A1FFA87FC4EEA52
:10554800821268B21A82AEE74806E4D403F1140066
:10555800B1E728444568C2F30B409882100F2A0F20
:10556800C5F30B4CAEB24EEA82121A829BE700BF1B
:1055780070B504460E46154600212022083005F075
:1055880065FF2046C4E90065BDE87040FFF76CBFC1
:105598000389016801330A889BB29A4210B5044610
:1055A80003810AD80023C0E902332046FFF75CFFD5
:1055B8002089003818BF012010BD4289D1F8023077
:1055C800012153F8223003F003001B0A814013F035
:1055D800300F0A44628102D1A2890132A28103F00C
:1055E8000E03082BE1D1E3890133E381DDE700BF36
:1055F80070B504460E46154600212022083005F0F5
:1056080025FF2046C4E90065BDE87040FFF72CBFC0
:10561800F8B50B680D4604469E68D6F802301B683C
:105628001B0A03F0C003802B0DD04F6820220021F5
:105638000C35083005F00AFF2046C4E90067FFF77B
:1056480013FF2562F8BD20220021083005F0FEFE78
:105658002B1D0C352046C4E90063FFF705FF2562C2
:10566800F8BD00BF1346528A082A01D001207047AE
:10567800DA69002AFAD030B430B1146874B1194626
:105688000432234630BC18470D4639B114682CB192
:10569800194628462346043230BC1847012030BC3E
:1056A800704700BF436810B49C1844604AB10A446C
:1056B800013B0139013A11F8010F914203F8010F3A
:1056C800F9D101205DF8044B704700BF827D12F0CC
:1056D800C00F14D112F0300320D0202B2BD0302B48
:1056E80029D0102B1FD002F00F03062B41D0072B17
:1056F80045D00B2B45D002F00E02082A22D0418A51
:10570800C26969B10139531E12FA81F101E08B4275
:1057180006D013F8012F002AF9D000231846704745
:10572800012318467047036A002BDCD01B78B3FAB4
:1057380083F35B09F2E7036A1B88B3FA83F35B0917
:105748001846704700B58BB0C269416A6846FFF7D2
:105758000FFF48B16846FFF7B9FF0346684623B113
:10576800FFF716FF0028F5D1012318460BB05DF8A6
:1057780004FBC3691B88B3FA83F35B09CEE7C369EB
:10578800D4E7438AB3FA83F35B09C7E710B4054C3F
:1057980004600024C0E90112C0E903445DF8044B29
:1057A800704700BF953A0000F8B50446154642B167
:1057B800066836B1C36887681344BB420AD8B04745
:1057C80020B1E36801202B44E360F8BD236943B1AD
:1057D8002361F8BD036913B100202361F8BD024BB2
:1057E800FAE7024BF4E700BFEC110020F8110020A3
:1057F800802A944673F1000230B585B007D20122A1
:1058080001A98DF804C0FFF7CFFF05B030BD0546EC
:105818000CF07F0E4FEADC12002101A853EA020CBB
:105828006EF07F042AD0013102F07F0E00F8014BA0
:10583800D2090429F2D1FBB11A01DB0802F0700287
:105848004EEA020E18D00DF1070C6EF07F0403F03B
:105858007F0EDB090A460CF8014F01F10101F4D172
:10586800023201F1100301A928466B4403F80CEC3D
:10587800FFF79AFF05B030BD0522F2E74A1CF0E7B2
:1058880091F816C04B8A0CF00F0CBCF1020F14D023
:10589800012B09D0022B27D0042B1BD0082B14D1A5
:1058A800CB69D3E9002303E0CB6993F90020D31730
:1058B800BCF1030F12D0FFF79BBF012B1ED0022BA8
:1058C80026D0042B28D0082B1ED00369D3B103613E
:1058D80000207047CB691A68D317E9E7002B08DB6B
:1058E80092185B41FFF784BFCB69B3F90020D31747
:1058F800DEE792185B41D243DB43DCE7CA69002349
:105908001278D8E7064BE2E7CB69D3E90023D2E760
:10591800CA6900231288CEE7CA6900231268CAE759
:105928009C11002030B5D1E9002383B00568190A1D
:1059380004468DF8043000921A0C1B0E8DF80510E1
:105948008DF806208DF8073045B1D0E902230833D9
:10595800934209D808226946A84758B1E36801204C
:105968000833E36003B030BD036943B1002023610D
:1059780003B030BD236923B1236103B030BD024BAE
:10598800F4E7024BF8E700BFEC110020F811002003
:105998008B7D03F00F030B2B17D8DFE803F00E0EF7
:1059A8000E0E1E1B0606060616064FF0020C0A8A85
:1059B80000234CEAC202FFF71BBF4FF0000C0A8A13
:1059C80000234CEAC202FFF713BF036943B1036126
:1059D800002070474FF0010CE9E74FF0050CE6E7AF
:1059E800004BF4E7D81100202DE9F04186B00024DF
:1059F80005460F4601A816460594CDE90144CDE9B0
:105A0800034400F079FA20B9059B2B6106B0BDE884
:105A1800F081DDF81080234628464246FFF7E8FE6D
:105A28000028F3D0296829B3EB68AA684344934255
:105A380006D92B69E3B100202B6106B0BDE8F081DF
:105A48006B683246019101A8394602930594CDE965
:105A5800038400F051FAEB68049A13444245EB6062
:105A6800029B6B60059BE7D0002BE4D1044BE2E777
:105A7800044BE0E742462846FFF796FEC6E700BF1C
:105A8800C4110020EC11002070B58A7D84B0054651
:105A980002F00F030B2B00F28980DFE803F07B068E
:105AA80006060C0C67361B1B8757284604B0BDE852
:105AB8007040FFF7E5BE4A8A042A00F0AD80082A44
:105AC80000F0A3802B69002B00F0978000202B6149
:105AD80004B070BD486A002800F09180092B0CD1F1
:105AE8000A6A52B152F8083C3BB1043A284601917F
:105AF800984700284BD00199486ACA690146284648
:105B080004B0BDE87040FFF76FBF02F0C002488ADA
:105B1800CE69802A5AD0002869D00138002E52D088
:105B2800002858D03346002402E00134A04254D95A
:105B380013F8012B9C46002AF7D122460023284659
:105B4800FFF756FE18B32246314609E04A8A002379
:105B58002846CC690192FFF74BFEC0B1019A214655
:105B6800284604B0BDE87040FFF71EBECC69002C83
:105B78005AD012F0C00F268803D14B8AB21C9A4221
:105B88001CD8324600232846FFF732FE98B9002079
:105B980004B070BDCA69002328461278D21A18BF0B
:105BA800012204B0BDE87040FFF722BE2B69002B2C
:105BB8008CD11F4B8AE73246A11CD1E72B69002BF9
:105BC80084D11C4B82E732463446B7E7002EFAD020
:105BD8004FF0FF30A6E7B44604469CF80030002B8F
:105BE800ABD02B69002B7FF471AF134B6EE72B6999
:105BF800002B7FF46BAF114B68E7114B66E72B69FD
:105C0800002B7FF463AF0F4B60E7C969284604B0E7
:105C1800BDE87040FFF786BECB69284603A91B681C
:105C28000393FFF7C1FD53E7002200232846B8E796
:105C3800D811002060100020881000207410002067
:105C48009C1100209C1000202DE9F0418B7D88B02C
:105C58000C46054603F03002302A25D0102A18D009
:105C6800E769002F70D003F0C001402900F086805A
:105C780003F0300020282AD003F00F030B2B00F28A
:105C8800A980DFE803F09C9C9C9CA5A38B8B8B8B45
:105C9800A78B0A6A8AB1127812B1E769002FE2D19C
:105CA800012008B0BDE8F081096A228A098891427A
:105CB800F6D1E769002FD6D1F2E713F0C00FECD187
:105CC8000846FFF703FD0028EAD1A37DC8E7206A4C
:105CD8000688002EE4D0802902D0A18AB14270D370
:105CE80003F00F01052940F284804FF0000819E005
:105CF8003B68E361002B32D021462846FFF748FE77
:105D0800002839D021462846FFF7BEFEE76178B360
:105D1800638A08F101081F441FFA88F39E42E7616D
:105D2800BED9A37D03F0CE03862BE1D0002FEFD0A0
:105D380021462846FFF72CFED0B121462846FFF71A
:105D4800A3FEA8B1E769E3E713F0300FA8D12B69E8
:105D5800002B4CD000202B6108B0BDE8F081214613
:105D680028460193FFF714FE019B002837D1E7610D
:105D7800002008B0BDE8F081E76192E72368D3F816
:105D88000E30002B8CD02246294600209847002848
:105D980086D12B69002BDED1514BDCE70221228A08
:105DA8000023284641EAC202FFF722FD0028DFD07F
:105DB8002146284608B0BDE8F041FFF765BE00213E
:105DC800EDE72B69002BC5D1464BC3E70121E6E778
:105DD8000521E4E72B69002BBCD1434BBAE701222C
:105DE80003A928468DF80C30FFF7DEFC8EE73F4B01
:105DF800B0E7228A00272846D2003B4642F002023A
:105E0800FFF7F6FC0028B3D0A37D03F00F03042BA3
:105E180049D0052B51D0D4F81C800797CDE90377DA
:105E2800CDE90577214603A80137FFF729FD0028AA
:105E380045D0E369628A1344E361BBB29E42F1D85C
:105E4800069FC4F81C803A4600232846FFF7D0FC7A
:105E580000288DD0296800293BD00027A37D214642
:105E680003F00E03042B0ED02846FFF709FD002887
:105E78003FF47EAFE3690137628A1344E361BBB242
:105E88009E42EBD80CE7628A042A0ED0082A05D075
:105E98002B69002B7FF45EAF154B5BE7E169284661
:105EA800FFF740FDE3E7B700CDE7E36903A928461C
:105EB8001B680393FFF778FCD9E7F700C3E72B6962
:105EC800002B7FF448AF079B002B7FF444AF094BAE
:105ED80041E73A46284608B0BDE8F041FFF764BC00
:105EE800D0100020E0100020D8110020B8100020A9
:105EF8009C110020F810002030B595B00546684682
:105F0800FFF776FB58B93BE069462846FFF79CFE49
:105F180000282FD06846FFF73BFB002830D09DF8BB
:105F2800163003F00F030A2BEED1079B1C68002CD8
:105F3800F0D02368214628465B6853B19847C8B11A
:105F4800A468002CE6D02368214628465B68002B0D
:105F5800F4D10AA8FFF75CFB03460AA928462BB927
:105F68002A695AB118462A6115B030BDFFF76CFE90
:105F78000028E5D10023184615B030BD024AF1E7E4
:105F88000123184615B030BDB011002038B50446BD
:105F98000A4B0B4A002104F1340500F08DFA094B35
:105FA8000121094A284600F087FA0223204684F88E
:105FB8006830C4E91B45C4E91D4538BD00400C40A4
:105FC800DC07002000800C40F807002072B601238F
:105FD800826A437572B6936C23F08003936462B649
:105FE800826A72B6D36C43F00203D36462B6826AE3
:105FF80072B6936C43F08003936462B662B67047DE
:10600800837F8B4200F0E08070B4042900F20C8199
:10601800DFE811F0250073009000B5000500826AE2
:1060280072B6536C43F48063536462B6826A72B684
:10603800936C43F00103936462B6826A72B6536C40
:1060480043F00303536462B6826A72B6536C23F05A
:106058006003536462B670BC8177FFF7B7BF826A8A
:1060680072B6536C23F48063536462B6826A72B664
:10607800536C43F08003536462B66F4A6F4B1468E5
:106088009C4280F084806E4B9C4274D26D4B9C4243
:1060980080F09B806C4B00229C42164634BF002443
:1060A8000124856A72B6AB6C23F00103AB6462B657
:1060B800836A002A00F0818072B65A6C42F00102AD
:1060C8005A6462B672B65A6C22F002025A6462B618
:1060D800836A002C5FD072B65A6C42F020025A6470
:1060E80062B6002E5FD072B65A6C42F040025A6413
:1060F80062B670BC8177FFF769BF826A72B6536C6B
:1061080023F48063536462B6826A72B6536C23F0D8
:106118008003536462B6484A484B12689A4258D280
:10612800474B9A4268D2474B9A4273D2002216468E
:106138001446B6E7826A72B6536C43F480635364BC
:1061480062B6826A72B6536C23F08003536462B6F7
:10615800394B3E4A1B689342E8D93D4A934255D988
:106168003C4A934231D902F1186202F5162202F62E
:10617800040293420BD801260022344691E7826A32
:1061880072B6536C23F48063536462B64EE70122FF
:106198001646144685E772B65A6C22F020025A64F5
:1061A80062B6002E9FD172B65A6C22F040025A6431
:1061B80062B670BC8177FFF709BF72B65A6C22F0DD
:1061C80001025A6462B67DE7704700220126144630
:1061D80067E71F4B9A4223D91E4B9A421ED903F1F7
:1061E8001863012603F51623344603F604039A427E
:1061F80094BF0022012254E7144B9A420AD9202462
:10620800203400220126C4F340144AE70022012466
:10621800164646E700260124324642E74024EFE7C7
:106228000024012622463CE7438A9BB243F001033F
:1062380070BC4382704700BF381800200090D0031C
:106248000048E8010024F40000127A00005A6202B3
:1062580001B4C4040368890938B5437D04460D4672
:10626800EBB9072D19D8DFE805F01D33404D535918
:106278005F04A26A72B6536C23F01003536462B6CB
:10628800A36A72B65A6C22F480725A6462B672B605
:106298005A6C22F400725A6462B6E57738BD00F091
:1062A80049F8DEE7A26A72B6536C43F010035364F0
:1062B80062B6A36A72B65A6C42F480725A6462B6C5
:1062C80072B65A6C42F400725A6462B6E57738BD09
:1062D800A26A72B6536C43F01003536462B6A36AA1
:1062E80072B65A6C22F48072E8E7A26A72B6536CEE
:1062F80043F01003536462B6A36A72B65A6C42F450
:106308008072C2E7A26A72B6536C43F01003B5E715
:10631800A26A72B6536C23F01003C8E7A26A72B679
:10632800536C23F01003D8E7A26A72B6536C23F0BB
:106338001003DFE738B50021836A827D9D6CDB6C32
:10634800417502B938BD04460121FFF759FE032102
:10635800FFF782FF637D93B9A26A72B6936C43F02C
:106368002003936462B6A26A72B6536C23F4404366
:10637800536462B6042200232277A37538BD2046F1
:10638800FFF7D8FFE8E700BF38B5C37D8B4219D0C7
:10639800437D04460D4603BB092D14D90B2DA36A72
:1063A8001ED872B65A6C42F004025A6462B672B6CB
:1063B8005A6C22F008025A6462B640F2FF320A238D
:1063C800A261E37538BDA26A72B6536C23F00C0360
:1063D800536462B6FF220823F2E7FFF7ABFFDBE75F
:1063E80072B65A6C22F004025A6462B672B65A6CDB
:1063F80042F008025A6462B640F6FF720C23DFE7E7
:1064080010B5037D04462B4A002B49D1D36E43F4C3
:106418004033D36600234FF40072A16AE375A36189
:10642800A28384F8243072B64A6C42F480324A64FB
:1064380062B640F20271627F63756382E1836374BE
:1064480052B1A26A637772B6536C23F4C053536493
:1064580062B62046FFF7BAFD0A212046FFF794FFEF
:106468000122637DA27503BBA26A72B6936C43F0E6
:106478002003936462B6A26A72B6536C43F4404335
:10648800536462B62023204600212377FFF7B8FD26
:106498000121FFF7E1FE2046BDE81040FFF796BD59
:1064A800D36E43F44073D366B4E72046FFF742FF48
:1064B800DAE700BF00C00F40002910B583620CBFA7
:1064C8000B460323026214BF6B22672280F82E302A
:1064D8000CBF0B4604230446017580F82F3014BF07
:1064E8002723242380F82D2080F82C3014BF442340
:1064F800432380F83030FFF783FF204610BD00BFEC
:1065080038B5437D04460D46002B30D1012DA26AD3
:1065180024D972B6936C43F02003936462B6042DB9
:1065280009D8A26A72B6536C23F44043536462B626
:106538000423237738BD082D1CD9102D2AD8A36A27
:1065480072B65A6C22F480425A6462B672B65A6CB9
:1065580042F400425A6462B61023EAE772B6936CBA
:1065680023F02003936462B60023237738BDFFF736
:10657800E1FECBE7A36A72B65A6C42F480425A64D1
:1065880062B672B65A6C22F400425A6462B60823A4
:10659800237738BDA26A72B6536C43F44043536400
:1065A80062B62023C5E700BF437D10B504463BB95A
:1065B800A26A72B6936C43F00203936462B610BD8C
:1065C800FFF7B8FEF4E700BF1B2938B504462FD8FB
:1065D800036A0D465B5C03F01F031F2B28D0437D25
:1065E800002B2CD1A26AD36C03F0010323745BB196
:1065F80072B6A36A18685A6CC4E900029A6CDB6C1C
:10660800C4E9022362B6A26A72B6936C23F040030F
:10661800936462B6236A5B5D72B694F8241003F043
:106628001F03A26A03EBC113136062B6012038BDD1
:10663800638A00209BB243F00403638238BDFFF7EE
:1066480079FECFE7564AF8B5136F044643F4400382
:106658002DED028B136708EE101A90F82D1090F8A4
:106668002C0001F06BF8A36A1D68EDB272B65A6C83
:1066780042F400525A6462B6A26A136823F01F03F8
:1066880043F01003136072B6936C23F040039364D5
:1066980062B6444B1A68002A77DB207D00284AD16D
:1066A80094F82F204FF0010C3E4905F00F050CFA25
:1066B80002F342F210060F68DBB22E433B4343F06D
:1066C800C0430B6002EB820301EBC30318619E61B8
:1066D800A36A9B6C980707D502F00702CB680CFAEF
:1066E80002FC4CEA0303CB6094F82E1000222E4DD6
:1066F8000F2041F2010EB8EE480A05EB41139A81CA
:106708005A81D8814801A3F814E045F6C05EA3F881
:1067180006E02A5228461A8243F226029A8100F09D
:106728000FFF94F82E1028460522BDEC028BBDE819
:10673800F84000F0DBBE1B4A4FF0010C05F00F05D6
:10674800136823F08043136094F82F1016680CFA2E
:1067580001F301EB8100DBB202EBC000334343F0ED
:106768000053136042F210032B4300250561836137
:10677800A36A9B6C9B07B7D501F00701D3680CFA95
:1067880001FC4CEA0303D360AEE772B61A6822F044
:1067980000421A6062B6052000F096FC7DE700BF53
:1067A80000C00F4000003B4000801E4010B504466A
:1067B8000022064894F82E1000F098FEA26A72B6DD
:1067C800536C23F40053536462B610BD00801E401E
:1067D8000C4B1B6893B10C4A93F884C01168D3F82A
:1067E80088200A480132C3F88820D3F890208A1AF2
:1067F800C3F88C20C3F8901080F81FC0BFF34F8FE8
:10680800704700BFB02F0020243B002000800E40BE
:106818000C4B5B6893B10C4A93F884C01168D3F8A9
:1068280088200A480132C3F88820D3F890208A1AB1
:10683800C3F88C20C3F8901080F81FC0BFF34F8FA7
:10684800704700BFB02F0020243B002000800E407E
:106858002DE9F041D0F89C6004461EB1B0F8A03094
:10686800002B61D17C4B7D48B4F89850012A18BFA1
:106878001846D4F880306D00012A18604FF00000E7
:106888009880D860D4F8940018614FF0010025FA78
:1068980000F6C5F10005D871DE839D61DE829D8B0F
:1068A8009871ADB245F002059D839D8BADB245F060
:1068B80008059D834FF002059D829D6084F8A8001D
:1068C80094F88430664800F0AB80046003F01F063B
:1068D8006448012503F1100EDFF8A0C100EB531046
:1068E800B540DFF89C811FB280005F4E4CF82E80C7
:1068F8000560002046F827005C4846F8270001EBB1
:1069080082015B4AD3764B6F9A6A72B6936C43F0F6
:106918004003936462B6486FFFF746FE554B1B6809
:10692800C4F89030BDE8F0819C464C4F4A4B4FF07C
:10693800020EB0F898504FF00108012A18BF1F4600
:106948000368D0F89400012A1F601861DD83DD8296
:10695800988B256C20F0800083F807809D614FEAB2
:10696800004083F80680A3F814E04FEA1040C3F80B
:1069780008E09883988B80B240F010009883988B39
:1069880080B240F0020098834FF000009880D860F1
:106998002F60A8802E6185F80780A5F81EC085F8AD
:1069A8000680E860A5F814E0C5F808E0AB61A5F832
:1069B80016C0B5F81CC02CF0800C4FEA0C4C4FEAFE
:1069C8001C4CA5F81CC0AE8BB6B246F01006AE83C0
:1069D800AE8BB6B246EA0E06AE83D4F88050B5F850
:1069E8001CC02CF0800C4FEA0C4CD3E9008ED3E984
:1069F80002764FEA1C4CEE60A5F81CC0AF60C5E9F2
:106A0800008ED3E904C7D3E90663C5E904C7C5E91D
:106A1800066384F8A80094F8843011487FF455AFD1
:106A2800446003F01F050F4803F1100E02FA05F544
:106A3800DFF848C000EB5310DFF848801FB20A4E59
:106A480080004CF82E800560002046F827000A4890
:106A580046F8270053E700BF24400C4024800C4030
:106A6800B02F00204038003800C00E4018000080C9
:106A780000800E40243B00205800008000240020A5
:106A8800C14B0000014C000090F8A8301BB190F8F1
:106A98008410024AD1761846704700BF00800E4025
:106AA80030B472B621B9036813B102790F2A3BD901
:106AB800244C2188002341FA03F212F0010208D085
:106AC8000133102BF7D162B600220371026030BC8B
:106AD80070474FF0010C0CFA03FC41EA0C012180CD
:106AE80062B619495FFA83FC184C194480F804C04F
:106AF8004B01E16F41F0C001E16740F28244144963
:106B08000C6081F81AC081F81EC081F818C081F89D
:106B18001FC0036030BCC3E90022C3E90222C3E9F5
:106B28000422C3E906227047064C218841FA02F57F
:106B3800ED07BFD5044D1544B3EB451FBAD162B676
:106B4800C5E700BF543B00208074000200C00F401E
:106B580000800E4003790F2B11D8094A937672B63C
:106B68000849012290F804C00B8802FA0CF223EAC3
:106B780002030B8062B61022002302710360704783
:106B880000800E40543B0020EFF3108272B6437F22
:106B98005BB9017F012930B40BD0032913D001233D
:106BA800437702B962B630BC70470AB962B670471B
:106BB8007047124C2168B1B1114943610B680860F4
:106BC80083615861EBE70F4D0F492C688CB1436125
:106BD8000B68836158614FF0E0234FF080540860E0
:106BE800C3F8044DDBE7064B20601860C0E90511C7
:106BF800D5E7C0E905442860EDE700BFA02F0020D5
:106C0800AC2F0020A82F0020A42F002070B5EFF390
:106C1800108272B60C4C206880B10C4E0025436976
:106C2800236073B19D6102B962B68368457798475E
:106C3800EFF3108272B620680028F0D102B962B66C
