:0200000460009A
:100000004643464200000156000000000103030081
:1000100000000000000000000000000000000000E0
:1000200000000000000000000000000000000000D0
:1000300000000000000000000000000000000000C0
:1000400000000000010408000000000000000000A3
:100050000000200000000000000000000000000080
:100060000000000000000000000000000000000090
:100070000000000000000000000000000000000080
:10008000EB04180A063204260000000000000000FD
:10009000050404240000000000000000000000002F
:1000A0000000000000000000000000000000000050
:1000B0000604000000000000000000000000000036
:1000C0000000000000000000000000000000000030
:1000D00020041808000000000000000000000000DC
:1000E0000000000000000000000000000000000010
:1000F0000000000000000000000000000000000000
:10010000D8041808000000000000000000000000F3
:100110000204180804200000000000000000000095
:1001200000000000000000000000000000000000CF
:10013000600400000000000000000000000000005B
:1001400000000000000000000000000000000000AF
:10015000000000000000000000000000000000009F
:10016000000000000000000000000000000000008F
:10017000000000000000000000000000000000007F
:10018000000000000000000000000000000000006F
:10019000000000000000000000000000000000005F
:1001A000000000000000000000000000000000004F
:1001B000000000000000000000000000000000003F
:1001C000000100000010000001000000000000001D
:1001D000000001000000000000000000000000001E
:1001E000000000000000000000000000000000000F
:1001F00000000000000000000000000000000000FF
:10020000FFFFFFFFFFFFFFFFFFFFFFFFFFFFFFFFFE
:10021000FFFFFFFFFFFFFFFFFFFFFFFFFFFFFFFFEE
:10100000D1002043491600600000000000000000ED
:10101000201000600010006000C0006000000000B0
:101020000000006000CC000000000000FFFFFFFF98
:10103000FFFFFFFFFFFFFFFFFFFFFFFFFFFFFFFFC0
:10104000FFFFFFFFFFFFFFFFFFFFFFFFFFFFFFFFB0
:10105000FFFFFFFFFFFFFFFFFFFFFFFFFFFFFFFFA0
:10106000FFFFFFFFFFFFFFFFFFFFFFFFFFFFFFFF90
:10140000814205D051F8043B40F8043B8242F9D8B0
:10141000704700BF044A05494FF0000342F8043BFF
:101420009142FBD8704700BFC01E002060310020F1
:101430002DE98848BFF34F8F00BF00BF00BF00BF3A
:1014400000F016F9674B0822C3F8542100BF00BF13
:1014500000BF00BF00BF00BF00BF00BF00BF00BF94
:1014600000BF00BF00BF00BF00BF00BF5E4A5F49B2
:101470005F48FFF7C5FF5F4A5F496048FFF7C0FF5D
:101480005F4CFFF7C7FF4FF470004FF0E0210023DF
:101490005C4AC1F8880D44F823200133B02BFAD1FF
:1014A000594B8021594A03F8011B9342FBD14FF05D
:1014B000E0254C4E4FF08039DFF880B1DFF880A195
:1014C0004FF0FF31C5F8084D0027C6F80491C6F863
:1014D00000B1C6F8F490C6F8F0A0D5F8243DDFF8C6
:1014E000648143F4E0234A4AC5F8243DD8F81C300F
:1014F00023F07F0343F04003C8F81C30D8F82430B1
:1015000023F07F0343F04003C8F824309166D1668E
:101510001167516700F0B4F83E4B3F49A3633F4B5E
:10152000E36363236B610323AF612B613C4BC5F81D
:10153000203DD5F8FC3D43F08073C5F8FC3D394BA8
:101540001A6842F001021A605B680B6000F020F933
:10155000C6F804913448C6F800B1C6F8F490C6F84D
:10156000F0A000F0B5FAD8F86C10304B304A41F4D6
:101570004051C8F86C101F60C3F80871C3F81871A7
:10158000C3F82871C3F83871936BDB0708D442F6AF
:101590001563284951651365936B43F00103936309
:1015A000234A254C936843F00113936000F054FAEA
:1015B00000F092FA00F01AF900F05CF82368132B9F
:1015C000FCD900F0ABF92368B3F5967FFBD300F0AC
:1015D00055F800F051F800F087FA00F071FA30BFCA
:1015E000FDE700BF00800D40E8810000181C00608E
:1015F00000000000C01E0020049E006000000020CB
:10160000001C00206D58000000E400E0A0E400E0B1
:1016100000C00A40254B0000EC3000208D4B00003C
:1016200000002020001000E00046C32300400840D6
:1016300000400D400000C056F03000201B10182064
:101640000C0D111300C00F40054B4FF42A01054A41
:1016500005485A641864054A99639546FFF7E8FE01
:1016600000C00A40AFAAAAAA070020000000072075
:10167000704700BF704700BF704700BF00BF704792
:1016800010B44FF0E023002110243148C3F8941D1A
:10169000C3F89C4D1124C3F8A00D2E48C3F89C4DEF
:1016A0001224C3F8A00D2C48C3F89C4D2B4AC3F854
:1016B000A00D2B4C42F015022A48C3F89C4DC3F8EC
:1016C000A00D294C2948C3F89C4DC3F8A00D284C07
:1016D000C3F89C2D2748284AC3F8A04DC3F89C0D99
:1016E000C3F8A02D02F5A022244C0C322448C3F8E4
:1016F0009C4DC3F8A02D234AC3F89C0D224CC3F87F
:10170000A02D02F14062C3F89C4D2048C3F8A02DE3
:101710000C32C3F89C0DC3F8A02D00BF00BF00BF62
:1017200000BF00BF0122C3F8942DBFF34F8FBFF35A
:101730006F8FC3F8501FBFF34F8FBFF36F8FD3F876
:10174000142D5DF8044B42F44032C3F8142D704759
:101750003F0000102500080709001000603100203C
:1017600013002000210002071400002025000813A8
:10177000090000101600202027000B13170000405E
:10178000180000602F000B07190000701A0000807D
:10179000F0B4154A40274FF480314FF480564FF48F
:1017A00000554FF4404443F24200136913F0020F16
:1017B0000ED113F4005F0FD013F4805F0ED0002B16
:1017C000F3DA13F4803F0BD15B060BD5F0BC704706
:1017D000946151619061E8E75561E6E75661E4E79D
:1017E0009161E2E75761E0E700800D403F4A032046
:1017F0003F49F3EE095AD2F880304FF0000C9FEDCC
:101800003D6A23F001039FED3C5A30B4C2F88030AA
:10181000C2F89000D1F8E010384DCBB2384C3948BE
:101820002B6007EE903A0B0DC1F30B21F8EEE77A2F
:1018300006EE903A07EE101A334BB8EEC77A2160E5
:10184000F8EEE66A314937EEC66A37EEC55A76EEEB
:10185000C76A77EEE57A26EE266AC3ED006A25EEC2
:10186000265AD2F8803067EEA64AC0ED007AC6EE5E
:10187000275A274885EE276AC4EEA76A75EE875A6D
:10188000FCEEE55A36EE076A15EE904ABCEEC66AE3
:1018900043EA045376EE877AC2F8803016EE103AA7
:1018A000D2F89041FCEEE77A01EA0341214317EEBA
:1018B000903AC2F89011C3F30B03D2F890110B4386
:1018C0001449C2F89031D2F8803043F00203C2F8D4
:1018D0008030114B80F840C0C1F840314FF0E02318
:1018E000012230BCC3F80821704700BF00810D40C1
:1018F00000441F400000AA420000B4423C2A0020DD
:10190000382A0020402A0020442A00200000FF0F2F
:1019100000E400E0001C00202D5A0000314B40F68E
:10192000617210B5C3F8202140F2044400F0D8F8E9
:101930002D4A2E49D2F880302D4843F00303C2F8D7
:1019400080302C4BC1F8604102681A4203D1D1F8B3
:10195000A8319A071BD0254A4FF00041244B596308
:10196000D2F8403143F00203C2F84031D2F840319E
:101970009B07FBD44FF400304FF0E0211C4B4FF09D
:101980000042C1F88C0219209A6300F09DF8184AB1
:101990004FF08040154C002190630A20164B1160D7
:1019A0004FF42072C4F8A801184600F085F84FF4EF
:1019B000800203464FF4810040F243111860C4F8DE
:1019C00058311A640D4B0E4AC4F84811C3F804226A
:1019D0004FF0E0224FF400310123C2F80C11C4F89B
:1019E000403110BD00800D4000C00F4000002E406F
:1019F00000900D40001C1E0000000020001C002074
:101A0000155C000008B50E4B1B6E9B0700D4FBBE97
:101A100072B60C4B00200C4AC3F8400103F160433E
:101A20000A49A3F55F2311649D46BFF34F8F4FF41E
:101A300000130748074ADB6902609B68984700BFAC
:101A400000441F4000002E4000C00A400300200058
:101A500000802020000012EB104BA020104AD96E0D
:101A600041F4403110B4D96640F23764D96E41F484
:101A70004071D96654649064936C1B06FCD4094A87
:101A800040F23761A02351649364936C13F0800398
:101A9000FBD1054A13705DF8044B704700C00F403E
:101AA00000400C4000800C401E310020F8B500BF03
:101AB000F8BC08BC9E4670475FF800F0ED7B000064
:101AC0005FF800F0F55100005FF800F0814F000072
:101AD0005FF800F0914C00005FF800F079570000CB
:101AE0005FF800F0856300005FF800F0417D0000C2
:101AF0000501000089040000912D0000A1310000C3
:101B00006135000045380000753900006D47000060
:101B10001603550053004200200053006500720078
:101B2000690061006C000000180354006500650046
:101B30006E00730079006400750069006E006F002C
:101B40000403090409026200030100C032080B000B
:101B50000202020100090400000102020100052442
:101B600000100105240101010424020605240600D9
:101B7000010705820310001009040100020A000099
:101B80000007050302400000070584024000000929
:101B900004020002FF6AFF000705810240000107FE
:101BA000050102400001000009026200030100C0BB
:101BB00032080B00020202010009040000010202C7
:101BC000010005240010010524010101042402067E
:101BD0000524060001070582031000050904010021
:101BE000020A000000070503020002000705840244
:101BF0000002000904020002FF6AC7000705810213
:101C00000002010705010200020100000A060002AD
:081C1000EF0201400100000099
:101C180000000000000000000000000000000000BC
:101C280000000000000000000000000000000000AC
:101C3800F8B54FF084439D695A6915400DD0254F7A
:101C480001269D6195FAA5F4B4FA84F457F8243076
:101C580006FA04F49847A543F4D11F4B9D695A69C5
:101C680015400DD01D4F01269D6195FAA5F4B4FAD3
:101C780084F457F8243006FA04F49847A543F4D1BD
:101C8800174B9D695A6915400DD0164F01269D6165
:101C980095FAA5F4B4FA84F457F8243006FA04F453
:101CA8009847A543F4D1104B9D695A6915400DD04A
:101CB8000E4F01269D6195FAA5F4B4FA84F457F8FD
:101CC800243006FA04F49847A543F4D1BFF34F8FA4
:101CD800F8BD00BFD0170020004000425018002077
:101CE80000800042D018002000C000425019002097
:101CF8000548064B1B1AD90F01EBA301491002D066
:101D0800034B03B118477047C01E0020C01E0020B7
:101D18000000000008B5054B1BB105490548AFF3A5
:101D28000080BDE80840FFF7E3BF00BF00000000E7
:101D3800E829002000CC006000231B60FFDE00BF04
:101D4800704700BF704700BF704700BF036818475F
:101D58000B680360704700BF0B680360704700BFE3
:101D6800704700BF692002F005BE00BF034B10B5E5
:101D78000446036002F0BEFD204610BD7C0800202A
:101D8800054B10B50446036002F0B4FD142120464B
:101D980005F0DCF8204610BD7C08002038B5104C52
:101DA800104DD4E900232D78501C43F10001C4E9FB
:101DB800000115B90C4B1B7803B938BD0B4A0C4B05
:101DC80090681D6030B103689B699847BDE838404A
:101DD80002F0D0BD6A20BDE8384002F0CBBD00BF9C
:101DE800882400201D31002020310020E428002014
:101DF800F828002010B5104C2368632B09D82368F5
:101E080016200E4AD15C05F0E3F9236801332360FC
:101E180010BD1620002105F0DBF9094B986830B198
:101E28000368DB699847BDE8104002F0A3BD6A204B
:101E3800BDE8104002F09EBDF8280020FC280020D4
:101E4800E4280020F0B54A4901244A4805224A4BB3
:101E58002DED028B047095B01A60A1F16500474A18
:101E6800A1F16403464C1460C21A03F8012F8B4297
:101E7800FAD1444C05230125434A444E2360404B84
:101E88001570642242494348336004F0C3FF294671
:101E98000D2004F0FBFE96ED000A16203E4DB8EE2C
:101EA800400A05F0FBF90021162005F091F93B499D
:101EB8003B4A94ED008A2B7BB8EE488A0091029247
:101EC80023B1B5EE408AF1EE10FA35D0AC6854B3C0
:101ED800344A324B216802AE0CA80F6831460A9387
:101EE8009047B0EE480A2A7B0AA92046B8470A9BC1
:101EF80004460CA8DB689847204602F03BFD009B8F
:101F08003046DB6898470321172004F0BFFE032200
:101F18002549172004F0F4FE15B0BDEC028BBDE88E
:101F2800F04000F075B96E685EB1B0470446A8602D
:101F3800C8B1009B5A68CDE7662002AE02F01AFDD0
:101F4800DDE71A4F57F8043F013698470446A86062
:101F58000028EED1072EF5D10028EAD1672002AE7D
:101F680002F008FDCBE7682002AE02F003FDC6E7E9
:101F7800C329002021310020E8300020E02800207B
:101F880080841E00E430002020310020DC2800205E
:101F980060290020FC280020E42800209408002064
:101FA800E5010000410100008D0100009825002096
:101FB80038B54FF4FA712B4800F0DEFA30B92A4CE4
:101FC80023787BB9BDE8384000F09AB9274B08223E
:101FD800254C0021C3F88C20224800F0C3FA23784E
:101FE800002BEFD0224DA868002837D00368DB69A2
:101FF800984702F0BFFC0021162005F0E9F81D49BA
:102008001D4B09781D4AA86819701D4D12681D4995
:10201800036809682A601C4DDB6A29601B498B42EA
:1020280016D1692002F0A6FC02F0A4FC95ED000A86
:102038001620B8EE400A05F031F964221449154813
:1020480004F0E8FE00232370BDE8384000F058B9DA
:1020580007EE902AB8EE670A9847E5E76A2002F08B
:1020680089FCC8E7D82900201D3100200040004223
:10207800E42800202131002020310020E830002011
:10208800E4300020E0280020DC2800205501000072
:1020980060290020FC2800201549164A09681268A2
:1020A800154838B5154B164C0068164D246818614C
:1020B8002D68DC60144C1D60C3E901121349144AF1
:1020C80008680021126898615A610122114800F0DD
:1020D80029FA01220021204602F02CFC0E4B204652
:1020E8000E4A23600E49BDE8384006F0B7BB00BF72
:1020F800A0060020A4060020AC0600209C25002095
:10210800A80600209C060020E4280020980600204D
:10211800B0060020D82900207C080020A413002045
:102128005D01000010B514460846114606F09AFAFB
:10213800204610BD08B506F0C9FA012008BD00BF49
:1021480010B50C460F48092106F08CFA21460E48B6
:1021580004F078FB03210D4806F084FA20B200F061
:10216800DBFA30B1044607F033FC0146204606F09E
:1021780079FA0121064806F075FA034804F06EFB67
:10218800002010BD340600206813002040060020FF
:1021980044060020012938B514461AD008210E48F3
:1021A80006F060FA0023102221460C4804F064FB74
:1021B80001210B4806F056FA2146084804F042FB74
:1021C8000121084806F04EFA044804F047FB0120B4
:1021D80038BD09210448E3E764060020681300209D
:1021E8005C060020600600205006002007210448F5
:1021F80008B506F037FA034804F030FB012008BDA3
:1022080048060020681300204FF0FF30704700BFD9
:102218002DE9F043112189B02B4A40F2DC502B4BB9
:1022280040F2EE282A4C2B4D2B4FDFF8D090CDE909
:102238000621CDE90430294A29492A48019100900C
:10224800294B2A492A48CDE902242A4A01F026FACC
:10225800294C2E6806F084FA237803B33B78DA0712
:102268001DD52B68D9F800209B1A0E2B17D92F687B
:1022780040F6B736DFF86080DFF8809006F070FA35
:102288002378B3B198F80030DB0712D52B68D9F85A
:1022980000209B1A0E2B0CD909B0BDE8F0832B68DF
:1022A80022789B1B62B1B3F5FA6FE0D806F058FAB2
:1022B800D0E72B68DB1BB342E0D909B0BDE8F08357
:1022C8004345F3D9D3E700BFE42A0020082B0020B8
:1022D80070060020F0300020283100207C06002005
:1022E800800600208C06002080020020280D002097
:1022F8004C2A00200C1A002029310020003100202F
:1023080008B506F045F9002800DC08BD06F084F998
:1023180004490346012204480B70BDE8084001F057
:1023280061BE00BF1F3100204C2A002008B5034BB6
:102338000A22196801F008FA012008BDE80E0020F9
:1023480008B5034B0A22196801F0FEF9012008BDFF
:10235800E430002008B5034B0A22196801F0F4F9AB
:10236800012008BDDC28002010B582B0012201A997
:1023780001F0BEFB40B101230549064A1846019CFD
:1023880013700C6002B010BD4FF0FF3002B010BDEA
:10239800E83000201D31002010B582B0012201A9CB
:1023A80001F0A6FB40B101230549064A1846019CE5
:1023B80013700C6002B010BD4FF0FF3002B010BDBA
:1023C800E02800201D310020F0B5164A85B0002114
:1023D8000126156802AFAA003B1D073222F007024A
:1023E800ADEB020D2A4602AC00910196214601F0A0
:1023F80077FE88B1002D08DD0B4B01A9EA1851F8CA
:10240800040F03F8010B9342F9D10123074A0C3753
:1024180018461370BD46F0BD4FF0FF300C37BD466F
:10242800F0BD00BFE80E0020602900201D3100200B
:10243800044A0549126808B5002301F027FE012067
:1024480008BD00BFE80E0020FC28002000B583B0BE
:1024580001220DF1070101F07FFB58B10123084962
:102468009DF807C0074A184681F800C0137003B0EA
:102478005DF804FB4FF0FF3003B05DF804FB00BFCC
:10248800213100201D31002008B5034B197801F0D7
:1024980037FA012008BD00BF2031002008B5034BE2
:1024A800197801F02DFA012008BD00BF1D31002068
:1024B80000B583B00122694601F08AFB40B1074BA1
:1024C80001209DED007B83ED007B03B05DF804FBEC
:1024D8004FF0FF3003B05DF804FB00BF88240020F4
:1024E80000B50A2183B0054BD3E90023009101F020
:1024F8002FF9012003B05DF804FB00BF88240020F9
:10250800014B1868704700BFF0300020034A044BA5
:102518001068A3FB00308009704700BFF03000202E
:10252800D34D6210022938B50446154612D00A4B1D
:102538000A4A012918BF1346A36035B198470023FA
:102548002573C4E90003204638BD20462573C4E935
:10255800005538BD024BEFE729500000F108000094
:10256800FD08000038B5836804460D4698470123E6
:10257800C4E90005237338BD037B70B50D46466872
:102588002BB10446836898472368F61A0644AE427E
:1025980034BF0020012070BD30B583B0002304464D
:1025A8003C300DF10601ADF8063000F09FF9BDF999
:1025B80006500DB103B030BD2946204600F09CF905
:1025C8004307F7D504222946204600F06DFAE36A4E
:1025D800002BEFD01B68002BECD02946204603B017
:1025E800BDE83040184700BF3C3000F021B900BFBB
:1025F80010B504463C3000F021F92046BDE81040F3
:10260800FFF7CABF81B1B0FA80F210B5520904468B
:1026180040B10A803C3000F033F92046FFF7BCFF98
:10262800012010BD002010BD0020704700B583B008
:1026380000233C300DF10601ADF8063000F056F9E4
:10264800BDF9060003B05DF804FB00BF2DE9F041B9
:1026580000F13C0482B00D46074601A92046ADF8BA
:10266800045000F0EFF8804600283FD0264C6FF069
:10267800630304F1300603E0A6420ED034F9063FA6
:10268800AB42F9DBB4F90230AB42F5DCA288022197
:10269800384600F0FFF9A642F0D10422002138465E
:1026A80000F0F8F9FB6A23B11B6813B129463846D4
:1026B8009847B8F1000F05D0012387F8393002B0E8
:1026C800BDE8F08104224146384600F0E3F9FB6A90
:1026D800002BF1D01B68002BEED00C4938469847E8
:1026E800012387F8393002B0BDE8F08101A92046FE
:1026F80000F0E2F84FF6A26301A92046ADF80430D5
:1027080000F0A0F8B2E700BF280C0020A2FEFFFFEF
:1027180000231A46FFF79ABF10F1640F03463ADA0E
:1027280010F1AA0F29DBAA33452B24D8DFE803F0E0
:102738004A2323232323232323232323232323233A
:102748002323234C23232323232323232323232328
:102758004E232323232323502323232323232323E9
:10276800232323232323232323522323235456239E
:102778002323485A235C1D48704710F59B7F2FD0B0
:102788000FDD10F1E00F19D0194A184813F1C80FDE
:1027980008BF10467047174A1448002B08BF104658
:1027A80070476FF4B572904206D0134A13F5AF7FA5
:1027B8000E4808BF104670471048704710487047C9
:1027C80010487047104870471048704710487047C5
:1027D80010487047104870471048704710487047B5
:1027E800104870471048704710487047DC040020B4
:1027F8009C050020D0040020D4050020E40500201A
:10280800AC05002000050020880500207405002084
:1028180060050020500500203C0500202805002008
:1028280010050020C4050020EC040020FC05002051
:1028380000238160C28003608380704700230360A7
:10284800838070470346B0F90400B3F906C0A1B10C
:10285800604512D0B3F90020013000B5B1F800E0AE
:10286800996821F812E001329880012092FBFCF16E
:102878000CFB11221A805DF804FB0020704700BF92
:102888000346B0F90400B0B1B3F9022010B421B185
:102898009C6834F812C0A1F800C00132B3F90610E0
:1028A80001385DF8044B92FBF1FC01FB1C22988077
:1028B80001205A80704770470346B0F90400A0B160
:1028C800B3F906C0B3F900206244013A10B592FB8F
:1028D800FCFE0CFB1E221A8019B19C6834F81220E9
:1028E8000A80421E01209A8010BD704703460120CD
:1028F800B3F904300B807047092904D818B1243182
:1029080030F8110070470020704700BF092900F215
:10291800A9802DE9F84F0646002841D00C461546F7
:10292800DFF86C81594F08EB440318F814105A78F3
:1029380007EBC20317F832C006EB4402587893F845
:1029480003E093F804A093F80590B3F806B0B2F842
:1029580048309D4224D0A2F8485006291DD8DFE807
:1029680001F021213C1F041F1F00BEF10B0F7AD07C
:10297800BEF1090F60D9BAF1090F85EA030225EA09
:1029880003014FF0000564D9BCF1090F04D80CF11C
:10299800240336F813301D436446B9F10B0FC2D136
:1029A800BDE8F88FB6F84820B6F84A0022F0400192
:1029B80001421FFA81FC36D042F0400235EA030397
:1029C800A6F84820E9D0F36A002BE6D09B68002BD4
:1029D800E3D0012130469847DFE70B2813D00928B8
:1029E8000DD9B9F1090F4ED809F1240336F813307F
:1029F80023EA0B054C46B9F10B0F94D1D0E72430EC
:102A080036F810301D40B9F1090F13D809F1240325
:102A180036F81330002DEBD0B9F10B0F4BEA030554
:102A28004C4680D1BCE7B9F10B0FA6F848C07FF43B
:102A38007AAFB5E70023EDE70EF1240E25EA03018E
:102A4800BAF1090F85EA030236F81E0001EA00050B
:102A58009AD80AF1240A36F81A301A4022EA0102F2
:102A6800154391E77047BAF10B0F84D1BCF1090FF8
:102A780025EA030590D80CF12403644636F8133090
:102A88002B439DB289E700254C46B4E7C80E0020C9
:102A9800B40E0020092905D820B101F1240330F82B
:102AA80013301A43FFF732BF092908D838B101F1AA
:102AB800240330F8133023EA0202FFF727BF00226D
:102AC800FFF724BF70B50A4C064604F11805FFF756
:102AD8008FFDAC4209D014F8081F0029F9D0002254
:102AE8003046FFF713FFAC42F5D1012070BD00BF9F
:102AF800C80E002010B582B00122044601A901F0D9
:102B08009BF818B94FF0FF3002B010BD2046BDF851
:102B180004200321FFF7FAFE012002B010BD00BF18
:102B280008B528B1B0F84E1000F00AFE012008BD23
:102B3800014600F005FE012008BD00BF10B504469F
:102B480058B1B0F84C10204600F0FAFD204600229B
:102B58000221FFF7DBFE012010BD0146F3E700BFAD
:102B68002DE9F041DFF83880064600F1800500F1D4
:102B7800900755F8044F20465CB106F029FF21461E
:102B88000246304600F0BCFDBD42F2D10120BDE84E
:102B9800F08101224146304600F0B2FDF4E700BF63
:102BA800CC04002008B540B1B0F84C20022142F016
:102BB8000102FFF7ABFE012008BD01220221FFF749
:102BC800A5FE012008BD00BF012108B500F0B8FD31
:102BD800012008BD20B1C36A13B11B6903B11847AE
:102BE8000120704710B582B00122044601A901F006
:102BF80023F818B94FF0FF3002B010BD2046BDF8D9
:102C080004200121FFF782FE012002B010BD00BFA1
:102C180008B528B1B0F84A1000F092FD012008BDAF
:102C2800014600F08DFD012008BD00BF08B528B1A0
:102C3800B0F8481000F084FD012008BD014600F0FE
:102C48007FFD012008BD00BF01207047D0E90113B6
:102C580002681A4491420DD210B5144C0B78E35C0B
:102C680013F0030308D04B1C934243600CD34FF07E
:102C7800FF3010BD00207047184610BDBCF15F0F33
:102C88000CD19342436007D013F801CB14F80CE041
:102C98001EF0070FF2D0F4E7C81A10BD4068824250
:102CA80001D9401A10BD081A10BD00BFA5080020A0
:102CB800D0E9002310B48468224493420BD293F9DC
:102CC80000C01C78BCF1000F05DB8C4206D0013334
:102CD80093424360F3D35DF8044B70475C1C944205
:102CE800446004D25C788C4201D10233F0E75DF88D
:102CF800044B4360704700BF0368D0E901021344E6
:102D0800984234BF00200120704700BF026830B4E9
:102D1800D0E901431A444C60944213D225462B460D
:102D2800013593F800C0BCF1200F11D0BCF1090F98
:102D38000ED0181B00288860D4BF1A23172330BC74
:102D48000B70704700201A2330BC88600B707047E6
:102D580095422B464560E2D1EBE700BFF8B51A2350
:102D6800476804460D460B70066883684F601E442A
:102D7800B74210D3FFF76AFF002835DD63689E422B
:102D8800184605D91A783A2A39D03F2A40D0184629
:102D980011232B7017E03B782A2B0CD03A2BE9D162
:102DA8007B1C6360FFF752FF0028E7DC21D1122368
:102DB8002B70606807E07B1C4360FFF747FF28B96A
:102DC80014232B706068C01BA860F8BD6068B0420F
:102DD80002D203783F2B02D013232B70F3E7013084
:102DE800162360602B70EEE703D10020A8606760AF
:102DF800F8BD6368B3421846CAD21A78C5E70133EA
:102E080020466360FFF722FF0028F2DBB6D1CEE749
:102E1800581C152360602B70D5E700BF026830B5D9
:102E2800D0E901431A444C60944205D22378144DEA
:102E3800EB5C13F0030304D100201A2388600B70A5
:102E480030BD631C934243600AD301200923886084
:102E58000B7030BDBCF15F0F0FD19A42436007D0B1
:102E680013F801CB15F80CE01EF0070FF2D0F4E7C9
:102E7800101B0028EADC1A23E0E74068001BF8E78B
:102E8800A5080020034600682DE9F043D3E9014274
:102E980000EB020C4C60644527D227782B2F1ED0FC
:102EA8002D2F1CD0A04608F10102444EA2EB080EBB
:102EB800104602F1FF390EF1FF3516F807E01EF053
:102EC800040E19D062455A601DD35860001B0028B3
:102ED8008860D4BF1A220A220A70BDE8F08304F180
:102EE8000108C445C3F8048051D800201A225C6048
:102EF80088600A70BDE8F083CC4501D92E2F05D033
:102F0800002DF2D011E012F8017BCFE762455A603C
:102F1800F6D2ACEB020712F8010B305C400745D53E
:102F28000EF1010E5A60BE45F5D158688445CCD9DA
:102F380005462F4615F8012B202A2AD0092A28D021
:102F48006745C2D202F0DF02452ABED10137BC452F
:102F58005F60BAD93A4601371578202D22D0092D5D
:102F680020D0944503D92B2D17D02D2D15D05A6874
:102F78009445AAD9002512F8017BF75D7F0719D57A
:102F8800944505F101055A60F5D810469EE7677823
:102F980089E7AC455D6098D0CBE7013294455A602B
:102FA80093D9E7E7BC455F608FD0D3E77544002D20
:102FB8009BD0BAE7002D88D0586887E7A50800207D
:102FC80002682DE9F043D0E9014302EB030C4C60A1
:102FD800644515D225782F2D34D027467A1C314EDA
:102FE80016F805E0A2EB0709134602F1FF381EF0B8
:102FF800030F31D0944542601BD912F8015BEFE70B
:1030080000221A230B701346446018468A60BDE8F4
:10301800F08301339C4543600BD91A46174612F8D2
:1030280001EB16F80E501346AD072ED094454260BA
:10303800F4D11B1B002B8B60E2DD0C2218460A70B2
:10304800BDE8F083671CBC45476001D96578C5E7D2
:10305800012213468A60F0E7B9F1010F13D0C44585
:1030680001D92D2D19D043689C45E2D91A78B55C51
:103078006D0705D55D1CAC45456010D95A782B46BF
:103088002E3A012AC5D94368D3E7BC45EBD9BEF12E
:103098002D0FE8D17B1C4360E6E74260E4E72B1B79
:1030A800C8E700BFA5080020D0E90032F0B4846862
:1030B8004A6023449A4202D21478232C09D04FF054
:1030C8001A0C002381F800C0426018468B60F0BCDF
:1030D8007047541CA3424460F1D9547804F0DF0CC3
:1030E800BCF1480F32D0622C16D012D8422C13D023
:1030F800512CE4D1941C9C424460E0D29B1A274690
:103108000025023B17F8016B303E072E35D90723FF
:1031180010E0712CD3D1EDE7941C9C424460CED2D0
:103128009B1A27460025023B17F8016B303E012EFB
:1031380028D908230B70002DC1D043684C601B1B95
:10314800002B28DD981C8B60F0BC7047941C9C42B7
:103158004460B4D29B1A26460025104F023B16F84D
:1031680001CB17F80CC01CF0440F12D00135466093
:10317800AB42F4D106230B70DFE7013547609D426F
:10318800C0D1C4E701354760AB42CDD108230B70ED
:10319800D3E70623CEE7002098E700BFA508002064
:1031A800F8B5D0E90173066804460D464F601E4421
:1031B800B74206D300231A2218462A706760AB600C
:1031C800F8BD3978222914D02729F3D17B1C436014
:1031D8000E232B70FFF76CFD43689E42EAD91A78DC
:1031E800272AE7D10133D81B63600028A860E1DDF6
:1031F800F8BD7B1C43600F232B70FFF759FD436814
:103208009E42D7D91A78222AD4D1EBE7026803461E
:1032180080682DE9F04102445C6894424C6002D217
:103228002078232807D000221A20087010465C60F6
:103238008A60BDE8F081601C8242586036D96078A7
:103248001E4E355C6D07EED53028ECD0A0F1300C61
:10325800A51CBCF1000F5D6025DDAE46002072455F
:10326800754600EB800021D09EF800700EF1010E2B
:1032780016F80780303F18F0040F07EB400013D012
:10328800BCF1010C7546C3F804E0E8D1844605EBAF
:103298000C009042586009D80D23281BC1E9015C35
:1032A80060440B70C5E7F2D0AA42BCD800201A24AB
:1032B80088600C705A60BDE8F08100BFA508002046
:1032C800026803468068F0B502445C6894424C602A
:1032D80002D22078282805D0886800281CDD102311
:1032E8000B70F0BD601C9042586015D2134F054614
:1032F80010F801EBAEF12006AEF1220C5E2E5FFA5B
:103308008CFC10D8BCF1190F47FA0CF601D8F60757
:1033180009D590425860EAD100221A200870104658
:103328005C608A60F0BDAA42F6D9BEF1290FF3D1DC
:103338000135281B5D608860CFE700BF1CFFFFFDDB
:10334800D0E9002310B484684B602244934202D22F
:103358001A782C2A09D04FF01A0C002210465DF872
:10336800044B8A6081F800C0704701334FF0000CAD
:1033780001224360F2E700BFD0E9002310B484685B
:103388004B602244934202D21A783B2A06D000208E
:103398001A225DF8044B88600A70704701220133D5
:1033A8005DF8044B436010460A708860704700BFA0
:1033B800D0E9002310B484684B602244934209D3B7
:1033C80000241A220A702246436010468C605DF879
:1033D800044B704793F800C0BCF10D0F0ED0BCF140
:1033E8000A0F1C4613D04268D21A002A8A60E7DD09
:1033F800052310465DF8044B0B7070475C1CA24215
:10340800446008D993F801C0BCF10A0FEBD101342C
:10341800E21A4460E9E701231A468B60E8E700BF37
:103428000622034908B500F06BF9012008BD00BF6A
:103438001806002010B582B0044601A9FFF7E2F88B
:1034480001A9204600F090F9012002B010BD00BF8C
:1034580010B50446FFF7EAF80146204600F070F977
:10346800012010BD10B504460721FFF745FA0146B3
:10347800204600F065F9204600220721FFF746FAAA
:10348800012010BD10B504460821FFF735FA0146A2
:10349800204600F055F9012010BD00BF10B582B0DC
:1034A8000122044601A900F0C7FB10B9012002B0AF
:1034B80010BD2046BDF804200821FFF727FA012097
:1034C80002B010BD0022072108B5FFF71FFA01203E
:1034D80008BD00BF10B5144622B30A788C46063AD8
:1034E800052A1DD8DFE802F00E181A1C03030A2269
:1034F8002146DCF804004BB100F08EFF003818BFFD
:10350800012010BD10222146DCF8040000F090FFD5
:10351800003818BF012010BD0822F4E70222F2E7A4
:10352800002010BD0249FFF7F3F8204610BD00BF88
:10353800CAFEFFFF10B5144622B30A788C46063A35
:10354800052A1DD8DFE802F00E181A1C03030A2208
:103558002146DCF804004BB100F076FF003818BFB4
:10356800012010BD10222146DCF8040000F07AFF8B
:10357800003818BF012010BD0822F4E70222F2E744
:10358800002010BD0249FFF7C3F8204610BD00BF58
:10359800CAFEFFFFF0B514468DB005460846023C4A
:1035A800009303A91346E4B2212200F005FE064663
:1035B8000E2C1CD8154B53F824702B6B002B1CDCDD
:1035C800002437B1EB6A3946022228465B689847DF
:1035D800044436B1EB6A324603A928465B6898472B
:1035E80004442B6B204601332B630DB0F0BD2B6BCD
:1035F800002B01DC0024ECE70027EB6A01220449D8
:1036080028465B6898470446DBE700BF3004002083
:103618000C0D0020F0B595B01F46044610469DF9E4
:10362800685039469DF86C3003AA0095023D019315
:103638004123EDB200F03CFE06460E2D1CD8154B7A
:1036480053F82570236B002B1CDC002537B1E36A87
:103658003946022220465B689847054436B1E36A3A
:10366800324603A920465B6898470544236B2846E1
:103678000133236315B0F0BD236B002B01DC00255B
:10368800ECE70027E36A0122034920465B68984774
:103698000546DBE7300400200C0D00202DE9F04F33
:1036A80085B01D460F4616460E9B0446129A0830F2
:1036B80013990393119B0192902202910021DDF846
:1036C8005080BDF954900093DDE90FBA06F096F8E2
:1036D800039B4A46414620462760E662E565C4F8F2
:1036E8008CA0C4E9213B009BC4F89030019BE360A7
:1036F800029B636005B0BDE8F04FFEF775BF00BFE1
:10370800F8B5036B04460E461546002B0EDC002761
:103718003DB136B1E36A2A46314620465B68984790
:103728000744236B384601332363F8BDC36A01227B
:1037380002495B6898470746EAE700BF0C0D00207E
:1037480001230A22FFF726BF0023FFF723BF00BF8C
:1037580010B582B000219DF91040CDE90041FFF776
:1037680059FF02B010BD00BF2DE9F04F0C4683B0E1
:103778000746B1F90000FEF7CFFF824606F028F9A8
:103788000123B4F9001080460A223846FFF702FFE9
:103798003B6B0546002B59DC0024FB6AB8F1FF0F90
:1037A8004FF001022D495B68384628BF4FF0FF08EB
:1037B80098470444FF26DFF8A490631901931FE09B
:1037C800A5EB0A040134A6422246A34638D91CB107
:1037D800FB6A5B6898478346361BFB6AA8EB0404C0
:1037E8000122013E5B684946384605EB020A9847C4
:1037F800B442019B584428BF34460344A046019371
:1038080041464A46504600F0BDFC054651463846FA
:10381800002DD5D1B8F1000F06D0FB6A42465146BB
:1038280038465B6898478046FB6A012238460B4950
:103838005B689847019B4044184403B0BDE8F08F8B
:1038480008F1FF38B8F1000FEED0E6E7FB6A012275
:10385800034938465B68984704469EE744060020BB
:103868000C0D002070B50A2384B00D4623220446AF
:103878000DF1060128468DF804201A4600F010FDC7
:103888000DF1060006F0A4F8236B00F13002C4F82D
:103898009450002B05468DF8052009DC0026E36AC4
:1038A800AA1C01A920465B689847304404B070BD43
:1038B800E36A0122024920465B6898470646EEE71C
:1038C8000C0D002010B5D0F8944094420CD3A41AE3
:1038D8000346C0F8944064B14AB141B1DC6A184665
:1038E8006368BDE8104018470449FEF711FF00203F
:1038F80010BD006B01301863EEE700BFCAFEFFFF82
:1039080000230A22FFF746BE002B18BF002A2DE924
:10391800F04708BF4FF0010A82B018BF4FF0000A05
:1039280032D01F460B780E46092B1CD114688146ED
:103938000CB31546D04602E055F8084FDCB12046D6
:1039480006F046F8B368014672682046CDF8008054
:1039580000F0D0FD0028EFD082466B6850463B60EF
:1039680002B0BDE8F0876FF06701FEF7D1FE504660
:1039780002B0BDE8F08748466FF0DF01FEF7C8FEE9
:10398800504602B0BDE8F0874FF0000A0349FEF741
:10399800BFFE504602B0BDE8F08700BFCAFEFFFF79
:1039A8002DE9F04184B005460F4601A9FFF7AEF9AD
:1039B800394606462846FFF777FB044640B101A979
:1039C8002846FFF7A3F93044204404B0BDE8F0814D
:1039D80039462846FFF722FA04460028EFD139462F
:1039E8002846FFF74FFA044698B939462846FFF7A4
:1039F800D7FB04460028E2D139462846FFF706FCE3
:103A080004460028DBD139462846FFF759FC04460E
:103A1800D5E701A92846FFF779F901A98046284684
:103A2800FFF7CEFA0028CADDBC6840440B230444E3
:103A38003B70BC60002CD8D0C1E700BF2DE9F8432B
:103A48000C46002942D04FF01A09054681F800902B
:103A5800C66943698769334400269F42C1E9016604
:103A680027D2436B00F114082BB14046FFF768FCDE
:103A7800237883BB6B6B0133214640466B63FFF7AA
:103A88008FFF23780B2B0ED8052B0FD800261A236F
:103A980028466FF096012370C4E90166FEF738FEE8
:103AA8003046BDE8F8830D3B032BEFD80120BDE875
:103AB800F88322B9092310460B70BDE8F8836FF02C
:103AC8006C01FEF725FE3046BDE8F8830749FEF78E
:103AD8001FFE2046EBE728466FF0660184F8009049
:103AE800C4E90166FEF714FE3046E0E7CAFEFFFFB0
:103AF80030B50C4685B0F1B101A90546FFF79EFF28
:103B080058B19DF80430082B09D8052B19D8284638
:103B18006FF06701FEF7FCFD002005B030BD0A2BF1
:103B28000FD00B2BF3D128466FF08901FEF7F0FD7B
:103B3800002005B030BD0749FEF7EAFD204605B074
:103B480030BD0023224601A92846FFF7C3FC05B073
:103B580030BD00BFCAFEFFFF70B50D4684B0E9B1A5
:103B680001A90646FFF76AFF044658B19DF80430DC
:103B78000A2B1AD06B46144A01A93046FFF7C4FE37
:103B8800044618B90024204604B070BD009B2046A6
:103B9800003B18BF01232B7004B070BD2C460B49A5
:103BA800FEF7B6FD204604B070BD012301A93046DA
:103BB8006A46FFF78FFC009B2046003B18BF012395
:103BC8002B7004B070BD00BF100D0020CAFEFFFFAF
:103BD80030B50C4685B0F1B101A90546FFF72EFFB7
:103BE80058B19DF80430082B09D8052B19D8284658
:103BF8006FF06701FEF78CFD002005B030BD0A2B81
:103C08000FD00B2BF3D128466FF08901FEF780FD0A
:103C1800002005B030BD0749FEF77AFD204605B003
:103C280030BD0023224601A92846FFF783FC05B0D2
:103C380030BD00BFCAFEFFFF30B50C4685B0F1B1FC
:103C480001A90546FFF7FAFE58B19DF80430082B84
:103C580009D8052B19D828466FF06701FEF758FDDB
:103C6800002005B030BD0A2B0FD00B2BF3D128460E
:103C78006FF08901FEF74CFD002005B030BD074903
:103C8800FEF746FD204605B030BD0123224601A9B6
:103C98002846FFF71FFC05B030BD00BFCAFEFFFF76
:103CA800F0B518251646074685B00D700C464268D3
:103CB8004FF0FF33002501204A6000E0A368034469
:103CC80001A938460135A360FFF76AFE9DF8042074
:103CD800034601A91A2A38460BD0A2681A44A260E2
:103CE800FFF72EFB0028E9D106B13560A06805B0C2
:103CF800F0BD00234FF0FF352270A360F4E700BF4A
:103D080030B5002587B00446856168460292CDE942
:103D1800001103A9FEF7FAFF21466846FFF71EF8CF
:103D2800A8421EDA009BA560636023611A236561BF
:103D38002370237303A96846FFF73AFB10B368465C
:103D4800FEF7DAFF9DF80C30012BDDE9002032D0B8
:103D5800A3F10503801AB3FA83F35B09237707B04D
:103D680030BD03A96846FEF7D1FFA84228DC019AB6
:103D78001A2303A96846656122612373FFF718FBBC
:103D88000028DCD103A96846FFF7F6FA054668461D
:103D9800FEF7B2FF2843D5D1019B012519226061A6
:103DA80058199DF80C301A212270012B009AA56031
:103DB80021732261CCD10223801A237707B030BD4A
:103DC80004F1180204F10C016846FFF769FFB1E736
:103DD8002DE9F04F1A23002706462DED028B89B0F6
:103DE80006978DF814300797002800F0E580012326
:103DF8008A46914600F1640B076380F838300293D5
:103E080004E0C1456FDDC244A9EB08094A465146A2
:103E18005846FFF775FF96F864308046192B6CD02A
:103E2800F36E002BEDDD594605A800F031FD34682E
:103E3800B16E2068F26E00286DD008EE10BACDF889
:103E48000C900C25C1469346B0460E4606E0D8F8BD
:103E5800004060592C440C35002856D000235A469F
:103E68003146CDE9007700F0AFFB0028EFD0464699
:103E780018EE10BAC846DDF80C90F26EB36E3262D6
:103E8800B3621344726F34617762C6E90522B26F78
:103E9800F26113F8015C96F83830A5F13F05012B63
:103EA800B5FA85F54FEA551502D0002D40F08B8004
:103EB800636886F83970C6F89470C6E90C77002BE9
:103EC80048D030469847012896F839303BD00293BD
:103ED800002B4DD00023029305ABC1459BE807009A
:103EE80083E807008FDC96F83830002B50D0029812
:103EF80009B0BDEC028BBDE8F08F6FF0640130466D
:103F0800FEF706FC002302937BE7464618EE10BA3C
:103F1800C846DDF80C9043460AEB0801581E4BB121
:103F280011F8012D0D2A01D00A2A03D10346581E83
:103F3800002BF5D100226FF07001304602925246F4
:103F4800FEF784FB5DE7002BC4D196F838200AB150
:103F5800002D3FD1F26973691344B2699A42BBD20A
:103F68006FF06B013046FEF7D3FB00230293B3E7F3
:103F78006FF0C7013046FEF7CBFBF2697369134453
:103F8800B2699A42A8D296F83930002BA4D1E7E753
:103F9800F36A0222114930465B689847F36A002B9E
:103FA800A5D0DB68002BA2D030469847029809B00C
:103FB800BDEC028BBDE8F08F0290029809B0BDEC11
:103FC800028BBDE8F08FF36A0122054930465B6831
:103FD80098476DE786F83830BCE700BF1406002024
:103FE80010060020F8B505461746002A43D0D0E948
:103FF80001341B1B9A4222DAC0680126204400249F
:1040080002F008FFAB68EA683B4405F16407AB605F
:10401800D454AA68E968121B38462144FFF770FE99
:1040280095F880300444012B13D095F864201A2A9F
:1040380000D113B1AA68A242ECD83046F8BD0026D8
:10404800C3686FF4B57186601E70FEF761FB304679
:10405800F8BD2246E9682846FFF7BAFE0646D5E9C4
:104068000223121B1919184605F04CFBAA68121BEB
:104078000024AA60CEE7D0E90232D754D0E9022161
:10408800FFF7A6FE0646AF603046F8BD2DE9F041C1
:104098000746884616468BB902B3561E4D1E1C4667
:1040A8000E4415F8011F00230A223846FFF772FA5A
:1040B800B5420444F5D12046BDE8F08100F018FC73
:1040C80031463846FFF7CEFB04463246414638466D
:1040D800FFF7F8FB04442046BDE8F0811446EAE700
:1040E8002DE9F04385B09DF830409DF83450002C00
:1040F80044D180460F4691461E461C60C2B117EB5C
:1041080084042A4601A9404623D0FFF797FC78B1DA
:104118009DF80430082B10D8052B20D840466FF0A6
:104128006701FEF7F5FA85F0010005B0BDE8F083F8
:1041380085F0010005B0BDE8F0830A2B0FD00B2BEA
:10414800ECD140466FF08901FEF7E2FA85F00100F4
:10415800EBE70B49FEF7DCFA85F00100E5E7012300
:10416800224601A94046FFF7B5F90028E0D0346897
:10417800002501344C453460C1D3D6E70020D4E78C
:10418800CAFEFFFF0144884213D010B58646704628
:104198001EF8014B5CB1944601E09C4206D01CF825
:1041A800013B002BF9D17145F1D1184610BD2046CD
:1041B80010BD0020704700BF2DE9F041344F86B094
:1041C8000E4614469E4601AD84469DF830800FCFBA
:1041D8000FC53B682B70BCF1000F0BD1002C4DD0E4
:1041E800302301203370A04249D20023335406B053
:1041F800BDE8F081AEF10203DBB20E2B0FD9BCF1A2
:10420800000F244B3EDAB8F1000F3BD0CCF1000C84
:10421800002C3AD02D22012032700A220AE01E4AD0
:1042280018EADC781D49D25651F8233001D00A2A01
:10423800ECD000209C4503D2B3FBF2F36345FBD8D6
:10424800451E35440CE011F814EC9A4200F10100C7
:1042580005F801EFB3FBF2F10B46C4D88442C2D98A
:10426800A042BCFBF3FE5FFA8EFE0EF118010EFBB6
:1042780013CC6944E7D306B0BDE8F081204606B008
:10428800BDE8F0810A220020D4E720460A22D1E7BF
:104298002006002000CA9A3B8004002090040020D9
:1042A80010B5002482B00094FFF786FF02B010BD5D
:1042B8002DE9F04F554D89B006460F46964699466A
:1042C80003AC01929DF948A09DF84CC00FCD0FC4D6
:1042D8002B68237056EA070311D1B9F1000F2DD0CE
:1042E80030234FF001088EF80030C84527D200234C
:1042F800019A404602F8083009B0BDE8F08FBAF1DB
:10430800080F71D0BAF1100F1DD0BAF1020F6BD09F
:10431800002F6DDABCF1000F6AD0764267EB4707D1
:10432800B9F1000F6CD1C8460A22394D394C4FF00B
:10433800000B284692462146154612E0C8464046DC
:1043480009B0BDE8F08F00254FF08054AE4277EBFE
:10435800040352D228464FEAEA7B4FF00008214670
:1043680055465B462A4604F07FFA864277EB0103FE
:10437800F7D305460C4608F1FF33019A4FEAEA7B6A
:10438800D31800931DE010F8143C2846009908F152
:10439800010801F8013FA2FB053C00912146F31AF0
:1043A80002FB04CC52461E465B4667EB0C0704F042
:1043B8005BFA5545054674EB0B040C4695D3C1458D
:1043C80093D92A4623463046394604F04DFA00F080
:1043D800FF02C0B2C84500F120030DEB0300D2D3A1
:1043E800404609B0BDE8F08F00254FF00044ADE726
:1043F800074D4FF00A0A074CA8E74FF00008BAE744
:104408002D23019A4FF0010813708DE72006002034
:104418000000E8890423C78A30B583B00D460446F6
:1044280001A904F00DFF019B2860181B03B030BDE3
:1044380030B583B00D46044601A904F0AFFF019BD7
:104448002860181B03B030BD30B583B00D46044654
:1044580001A905F06DF8019BC5E90001181B03B01F
:1044680030BD00BF30B583B00D46044601A905F044
:104478003BF9019BC5E90001181B03B030BD00BF23
:104488008B421FD370B5144682B00D460A462146AA
:104498001E4605F005FA90B9069BABB1AE4202D1B3
:1044A800012002B070BD2C440A2201A9204604F064
:1044B800C7FE019B02461B1B2B449E4214D00020C2
:1044C80002B070BD00207047AE42E9D9013D611EBF
:1044D80007486219314401E09142E1D012F8013FE6
:1044E800C35C5B07EBD5F7E7069B01201A60E7E79B
:1044F800A50800202DE9F04182B0064617469846E7
:10450800089CA1B34A1E835C232B34D000F1FF3EE4
:1045180000242C4B09E013F805C00CF0030CBCF187
:10452800020F06D00134A14203D01EF8015F002D0E
:10453800F1D141450CD0A04515D142463946304607
:1045480005F0AEF9B0FA80F0400902B0BDE8F0819C
:104558000A463046394605F0A3F90028EBD1012078
:1045680002B0BDE8F081002002B0BDE8F08141450D
:104578000C46E0D1ECE712B3411E0025114807E0D4
:10458800C35C03F00303022B06D00135AA4203D013
:1045980011F8013F002BF3D1114643463A46304605
:1045A8000094FFF76DFF0028CFD143463A462946CD
:1045B8003046089402B0BDE8F041FFF761BF1546E8
:1045C800EAE700BFA50800202DE9F04F8B4687B029
:1045D800CDE90402039305F0FBF905990446584612
:1045E80005F08CF9049A8046131913F8013C3F2B07
:1045F80000F0DF8013785B2B00F0E6800021049147
:104608003A2B01D10132013C9BF800303A2B03D1FF
:10461800B8F1010F00F200814FF0000A0BEB080916
:1046280010460219214690425FD0844667461CF81E
:10463800015B002D00F0B480934E3F23AB4258D06D
:1046480016F8013B002BF9D194456746EED1CB45CE
:104658001D46A44652D14446BCF1000F04DD431860
:1046680013F8013C232B72D0002300935A462346AB
:10467800FFF740FF002856D0A8EB0403B5FA85F2EF
:1046880053EA05014FEA521251D0002B00F0AB80DB
:10469800002A4BD1002B00F0A680002D46DD1BF828
:1046A80004200BEB04063978914202D13A2900F034
:1046B8009180012D3AD07878824257D0022D35D09A
:1046C800BC78A24232D15D2930D13A2A2ED15B285A
:1046D8002CD1F81CEC1E06F1010B03F1FF3802196E
:1046E80021460BEB080990429FD10746A4460025B6
:1046F80002E0391A8C46651ACB45ACD05A46964624
:1047080001329EF80060002EA5D0604C3A239E42EC
:1047180006D014F8013B002BF9D19145EFD19AE767
:10472800AEEB0B0498E73B785D2B03D0002007B075
:10473800BDE8F08F7B783A2B35D0022DF6DD5B2B68
:10474800F4D1BB783A2BF1D1F81CEC1E69E7039B36
:1047580053B1109A924507D2119A43F82A2003EBD5
:104768008A030AF1010A80E70023FAE7A2F13A0472
:104778005B29B4FA84F44FEA541401D1002C54D1C3
:104788005D299BD1002C99D003F1FF38049B06F1D9
:10479800010BB81C013BAC1E0BEB0809049340E766
:1047A8001746A446A8E7049BB81CAC1E013B04931B
:1047B80037E700F1FF381BF808303F2BB6D11378E4
:1047C800013C5B2B7FF41AAF01215378013C013285
:1047D800049115E706F1010B03F1FF38781C6C1EF4
:1047E8000BEB08091DE7002DA1D03978049E07EBD3
:1047F800050E2C46BC460EF1FF38002940D0224A4F
:104808003F2399421DD012F8013B002BF9D1E04516
:1048180036D01CF8011FF0E79BF801302A2B85D011
:104828000BF1010B08F1FF38F6E603F1FF38049BA2
:1048380006F1010BB81C0133AC1E0BEB08090493FD
:10484800EFE6ACEB070423465B2913D05D2900D1C2
:10485800013E013401332744ED1A36B9002D0BDD32
:1048680039785B297FF462AFC1E7002D3FF45FAF71
:104878003978BCE70136ECE70CBF0120002056E789
:104888009EF800102B46DFE7610C0020690C002021
:104898000B4601B370B54D68FDB18C68CCB1426868
:1048A8000646A2B1816891B1287800F0EF002A2865
:1048B8000DD010782A280AD002EB010C1CF801ED63
:1048C8000A460139BEF13A0F09D00029F6D1012074
:1048D80070BD204670BD08467047284670BDA81AAE
:1048E8001444586071689C6004F00CFFEFE700BF47
:1048F8000220704710B5054B04468068236010B14C
:104908000368DB6B9847204610BD00BF8C08002069
:1049180010B5074B04468068236010B10368DB6B51
:1049280098472046142102F011FB204610BD00BF15
:104938008C08002010B4054C416004600024027308
:10494800046184605DF8044B704700BF8C08002048
:1049580000231B60FFDE00BF704700BF704700BF29
:10496800704700BF10B5044650F8083BDB6898470D
:10497800204610BD084B10B51A6882B0044640B1F5
:1049880006498A4205D0126801A903F1080001947A
:104998009047204602B010BD58240020C4060020CD
:1049A8000348044B044A0549036003F057BF00BF9E
:1049B80058240020C4060020A4130020552D000010
:1049C80000207047DFED056A90ED047ADFED047A88
:1049D80086EE870A80EE270A704700BF0000804FE6
:1049E8000024744903463F2101220020DB689960B6
:1049F800DA601A6842F001021A607047C368002141
:104A08001A68084622F001021A60D960704700BF90
:104A1800C3680122002010B43F249C60DA60196149
:104A28001A685DF8044B42F001021A60704700BF33
:104A38006920704710B5044650F8083BDB68984772
:104A4800204610BD08B56920FFF794FF9FED010AC5
:104A580008BD00BF0000C07F6920FFF78BBF00BF03
:104A68006920FFF787BF00BF6920FFF783BF00BF3A
:104A7800C368304A2DE9F041476894B002604FF0AE
:104A880000081A683D462C4E044622F001021A60BE
:104A9800C3F80C8000960A9655F8083BDB68284650
:104AA80098470A9B0CA928460A963B609B6898473A
:104AB8000A9B0CA8DB689847009B02A8DB6898470C
:104AC800E3681E4A93421FD01D4A934206D0C8206D
:104AD800FFF750FF204614B0BDE8F081194D4FF0A4
:104AE800E02220212846C2F88C11C3F8008055F82E
:104AF800083CDB689847144B204645F8086C83F857
:104B0800008014B0BDE8F081104D4FF0E022102174
:104B18002846C2F88C11C3F8008055F8083CDB68B9
:104B280098470B4B204645F8086C83F8008014B072
:104B3800BDE8F08110070020B406002000C01E4028
:104B480000001F40B02000201431002088200020E1
:104B58001331002010B50446FFF78AFF14212046C0
:104B680002F0F4F9204610BD30B504462DED028B55
:104B7800027297B0002A27D151F8083B04A85A6856
:104B880002939047029B04A90EA85A680C93904779
:104B980065682C4654F8083B2046DB6898470C9B10
:104BA800204A0EA920460C922B609B6898470C9BC4
:104BB8000EA8DB689847029B04A8DB68984700208A
:104BC80017B0BDEC028B30BDD0ED047AB0EE408A50
:104BD800DFED156AC56886EEA77AB4EEC70AF1EE6E
:104BE80010FA10DD0368114A5B6A934214D1DFEDB5
:104BF800107A87EE278A6FF063000191FFF7BAFEFB
:104C0800D4ED047A019928EE270ABCEEC00A10EE0A
:104C1800103A013B2B61AFE7019198470199B0EE3B
:104C2800408AE8E7B40600200000804FB52D000058
:104C380000247449DFED186AD0ED047A86EEA77A6D
:104C480038B50D462DED028BB4EEC70AF1EE10FA19
:104C580010DD03680446114A5B6A934218D1DFED00
:104C6800107A87EE278A6FF06300FFF783FED4ED92
:104C7800047A01E0B0EE408A27EE880A0020BDECF5
:104C8800028BFCEEC07A17EE903A013B2B6038BDE0
:104C98009847B0EE408AE6E70000804FB52D000047
:104CA80000247449DFED186AD0ED047A86EEA77AFD
:104CB80010B504462DED028BB4EEC70AF1EE10FADA
:104CC8000FDD0368114A5B6A934219D1DFED107A50
:104CD80087EE278A6FF06300FFF74CFED4ED047A65
:104CE80001E0B0EE408A27EE880AE2680020FCEE78
:104CF800C07ABDEC028B17EE903A013B136110BDF0
:104D08009847B0EE408AE5E70000804FB52D0000D7
:104D180000247449DFED226AD0ED047A036886EE38
:104D2800A77A70B504469D682DED028BB4EEC70ACC
:104D3800F1EE10FA0EDD5B6A1A4A93422CD1DFEDD0
:104D48001A7A87EE278A6FF06300FFF713FED4ED17
:104D5800047A01E0B0EE408A28EE278A134B9D4280
:104D6800BCEEC88A18EE102A02F1FF310DD1E368B3
:104D78003F20012298600020DA6019611A68BDECB2
:104D8800028B42F001021A6070BDBDEC028B204616
:104D98002B46BDE8704018479847B0EE408AD2E7E6
:104DA8000000804FB52D000000247449012E00003A
:104DB8000F4B1A68D10710B504D50E4B1A68D207E5
:104DC8000AD510BD0C4901240C480D4A01600D4953
:104DD8001C6003F043FDF0E7012407490A481C6002
:104DE8000160074A0749BDE8104003F037BD00BF1E
:104DF8009024002094240020B40600208020002065
:104E0800A4130020252E0000A82000200146044BF2
:104E180003220020C96803EB01139A60704700BFA2
:104E280000410840C1680022024B104603EB011301
:104E38009A607047004108400369044ADB6810B56E
:104E4800044640F8182B9847204610BD5807002004
:104E5800064BDFED076AD3ED007A9FED067AF8EE90
:104E6800677A86EEA70A80EE070A70477813002053
:104E78000000804F00247449064A036910B50446AF
:104E8800DB6840F8182B98472046382102F05EF876
:104E9800204610BD580700206920FFF76BBD00BFF2
:104EA8006920FFF767BD00BF134B9FED147AD3ED60
:104EB800007AF8EE677A10B527EE800A0446B4EE59
:104EC800C70AF1EE10FA0ADCFCEEC07AC2680C4997
:104ED8000020120117EE903A013B535010BD6FF0BD
:104EE8006300FFF747FDE368054A6FF001011B0106
:104EF8000020995010BD00BF781300200000804F9B
:104F080000410840F8B50D4C0D4E0E4FA4F1E005D8
:104F180054F8183CA4F1180220469B6BB34209D1FF
:104F280054F8083C44F8187CDB689847383CAC4295
:104F3800EED1F8BD10469847F8E700BF9021002051
:104F480029320000580700201E4B01219FED1E7AD0
:104F5800D3ED007AC268F8EE677A70B527EE800A5A
:104F68001A4D0026044605EB0213B4EEC70A9E60EC
:104F7800D960F1EE10FA12DCFCEEC07A110117EEDE
:104F8800903A013B4B51236811499B698B4214D1DC
:104F98000E4B0321002003EB0213996070BD6FF0E4
:104FA8006300FFF7E7FCE2686FF001011301595154
:104FB800236807499B698B42EAD02046984700201E
:104FC80070BD00BF781300200000804F00410840EA
:104FD800FD31000002682B49D3698B4210B50446A5
:104FE8002DED028BB0EE408A49D1C0680021264BD6
:104FF80003EB00139960136B24498B4239D1244B7E
:105008009FED247AD3ED007AF8EE677A27EE880AC6
:10501800B4EEC70AF1EE10FA16DCFCEEC07AE168CD
:105028001948090117EE903A013B0B5093691A4A47
:10503800934218D1E1680322134B002003EB0113BC
:10504800BDEC028B9A6010BD6FF06300FFF792FC15
:10505800E36822686FF001001B010B4958509369FF
:105068000D4A9342E6D0204698470020BDEC028BBB
:1050780010BDB0EE480A204698472268D6E7984700
:105088002268B8E715320000004108409932000054
:10509800781300200000804FFD31000070B551F8F2
:1050A800083B04462DED028B8CB00272B0EE408AAC
:1050B80004A802935B689847236904F11800DB6829
:1050C80001909847029B04A9244A019823610292FF
:1050D8009B689847029B04A8DB689847237A0BB320
:1050E800E368002022681E4D166B1A0105EB0311B8
:1050F80001238860CB601B4B9E4218D11A4B9FED51
:105108001B7AD3ED007AF8EE677A27EE880AB4EEB8
:10511800C70AF1EE10FA13DCFCEEC07A17EE903AEB
:10512800013B535100200CB0BDEC028B70BDB0EEBA
:10513800480A2046B04700200CB0BDEC028B70BD79
:105148006FF06300FFF716FCE3686FF001020020C0
:105158001B015A510CB0BDEC028B70BDB406002087
:105168000041084099320000781300200000804F69
:1051780030B4214C0020214BE4692149214A6506BD
:1051880019605860C3E9030201D41F48006800246D
:1051980019489963C069DC6301249A645C64440615
:1051A80001D419480068144800241967C0695C676D
:1051B80002244006C3F88020DC6701D41248006846
:1051C8000D4D0024C3F8A8100320E969C3F8AC40CA
:1051D800C3E92D024B060CD40B4B0C4A1B68B3FBDE
:1051E800F2F30B4C00200B4A23600B4930BC03F050
:1051F80035BB1823F5E700BF00C00F40D0200020C2
:1052080058070020B40600206013002040420F0019
:1052180078130020A4130020F5320000692070479D
:10522800B7EE000A704700BF044A936823F00803EA
:10523800936093681B07FCD4704700BF00400D4083
:10524800044B9A6822F008029A60986810F00800E7
:10525800FBD1704700400D40084A936800B523F021
:10526800080383B0936093681B07FCD40C2101905A
:1052780001F06CFE019803B05DF804FB00400D409E
:105288006920FFF777BB00BF90ED026ABFEE007B95
:105298000F4AB7EEC66A9FED0C5BA6EE057BFCEEE7
:1052A800C77B17EE903AB3FA83F3C3F120031B01CF
:1052B800DBB29360936843F00803936093681B071D
:1052C800FCD50020704700BF8DEDB5A0F7C6A03F04
:1052D80000400D40002A45D00368254ADB69934207
:1052E80070B504462DED028BB0EE408A8CB03BD1F0
:1052F800204A936823F00803936093681B07FCD443
:1053080051F8083B04A85A680293904766683546E6
:1053180055F8083BDB6828469847029B164A2846FA
:1053280004A9029233609B689847029B04A8DB6833
:105338009847DFED127AB4EEE78AF1EE10FA0ED450
:10534800DFED0F7AB4EE678AF1EE10FA37FE888A3D
:10535800002084ED028A0CB0BDEC028B70BDB0EE6B
:10536800678AF5E769207047019198470199C7E76F
:105378003136000000400D40B40600200024F441FE
:10538800002474490000000001682D4ACB6993424B
:1053980010B504462DED028BB0EE408A49D1294A5A
:1053A800936823F00803936093681807FCD4DFED33
:1053B800267AB4EEE78AF1EE10FA2CD4DFED237AE0
:1053C8008B69B4EE678A224AF1EE10FA37FE888AB2
:1053D800934284ED028A26D1B7EEC80A194ABFEE75
:1053E800007B9FED156BA0EE067BFCEEC77B17EEEE
:1053F800903AB3FA83F3C3F120031B01DBB2936045
:10540800936843F00803936093681B07FCD500205A
:10541800BDEC028B10BD8B69B0EE678A0C4A9342D3
:1054280084ED028AD8D0204698470020BDEC028B34
:1054380010BD98472168BAE78DEDB5A0F7C6A03F23
:105448003136000000400D40E0FDF341002474496E
:105458007936000010B5094C094B0A4A20460A491A
:10546800236003F0FBF90948094B064A0949C0E9DA
:105478000034BDE8104003F0F1B900BFB0210020AE
:10548800B4060020A4130020252E000000250020CB
:10549800A00700201936000038B5064B0446036003
:1054A800EFF3108572B601F047F905B962B62046E8
:1054B80038BD00BFDC06002090F81CC04160BCF17C
:1054C800020FC26001D18368184701F0CFB800BF4E
:1054D80070B5144C064604F1500554F8043F1846BC
:1054E80013B11B681B6C9847AC42F6D133680E4A5F
:1054F8001B6893420FD1327F0023022A7360F36046
:1055080004D1B3683046BDE8704018473046BDE85E
:10551800704001F0ABB8002230461146BDE870403B
:10552800184700BF08250020A938000070B5EFF320
:10553800108572B6104C204601F0FEF80F4A012380
:105548000F4923771378A16043F0040313703DB12A
:1055580000236360E3600848BDE8704001F086B846
:1055680062B6237F6560022BE560F4D1A36820460C
:10557800BDE87040184700BF7C1300202C31002084
:10558800C1380000024A0349034803F067B900BF65
:10559800A4130020893800007C13002010B4084CA4
:1055A8000023224602E00133142B06D052F8041BD4
:1055B8008842F8D1002244F823205DF8044B704754
:1055C8000C250020014B5868704700BF001000E010
:1055D800074BDFED086A93ED007AB8EE477AC7EE1D
:1055E800267A27EE800AFCEEC07A17EE900A7047FA
:1055F80064130020002474499FED010A704700BF1E
:105608008096984A002283689A81704782680023AE
:1056180053811846938A23F010031B041B0C9382B2
:10562800938A9BB243F0400393827047034600205D
:105638009A68938A23F040031B041B0C93827047DB
:10564800DFED1D7A0146D0ED046A20EE270A9FEDB2
:105658001B7AC0EE267AF4EEC77AF1EE10FA26DC51
:10566800FCEEE77A002017EE903A9AB28B684FF07A
:10567800000C4969A3F80CC0A3F806C049021A80B7
:105688001A8201F4F051A3F80AC042F2600C9A8A17
:1056980041EA0C0C22F010021204120C9A829A8A27
:1056A80092B242F040029A82A3F80CC070474FF6BB
:1056B800FE726FF06300D9E70000164300FE7F47D3
:1056C8009FED057AD0ED046ADFED047A86EE870A4D
:1056D80020EE270A704700BF180D0F4D00FE7F47C8
:1056E800DFED0E7A0246D0ED046A20EE270A9FED20
:1056F8000C7AC0EE267AF4EEC77AF1EE10FA08DCDE
:10570800FCEEE77A002017EE903A9BB2926813827B
:1057180070474FF6FE736FF06300F7E7000016431B
:1057280000FE7F47DFED157A0246D0ED046A20EED1
:10573800270A9FED137AC0EE267AF4EEC77AF1EEC7
:1057480010FA15DCFCEEE77A002017EE903A9BB2CF
:1057580091680B8272B691684A8992B29A4204D9CA
:105768000B889BB24B8162B670470B8062B670475C
:105778004FF6FE736FF06300EAE700BF00001643C0
:1057880000FE7F4738B5264C264D2268AA4204D031
:10579800254B19688B8AD80637D4A26AAA4204D046
:1057A800224B19688B8ADB0625D4226DAA4204D0C5
:1057B8001F4B19688B8AD80613D4A26FAA420DD042
:1057C8001C4B19688B8ADB0608D58B8A126823F074
:1057D800100319481B041B0C8B829047BFF34F8F93
:1057E80038BD8B8A126823F0100314481B041B0C65
:1057F8008B829047E1E78B8A126823F010031048E8
:105808001B041B0C8B829047CFE78B8A04F108009E
:10581800126823F010031B041B0C8B829047BCE713
:10582800D8210020B40600205C2500206025002037
:1058380064250020682500205822002030220020FE
:105848000822002038B5264C264D2268AA4204D0EA
:10585800254B19688B8AD80637D4A26AAA4204D085
:10586800224B19688B8ADB0625D4226DAA4204D004
:105878001F4B19688B8AD80613D4A26FAA420DD081
:105888001C4B19688B8ADB0608D58B8A126823F0B3
:10589800100319481B041B0C8B829047BFF34F8FD2
:1058A80038BD8B8A126823F0100314481B041B0CA4
:1058B8008B829047E1E78B8A126823F01003104827
:1058C8001B041B0C8B829047CFE78B8A04F10800DE
:1058D800126823F010031B041B0C8B829047BCE753
:1058E80078220020B40600206C25002070250020B6
:1058F8007425002078250020F8220020D0220020DE
:10590800A822002038B5264C264D2268AA4204D089
:10591800254B19688B8AD80637D4A26AAA4204D0C4
:10592800224B19688B8ADB0625D4226DAA4204D043
:105938001F4B19688B8AD80613D4A26FAA420DD0C0
:105948001C4B19688B8ADB0608D58B8A126823F0F2
:10595800100319481B041B0C8B829047BFF34F8F11
:1059680038BD8B8A126823F0100314481B041B0CE3
:105978008B829047E1E78B8A126823F01003104866
:105988001B041B0C8B829047CFE78B8A04F108001D
:10599800126823F010031B041B0C8B829047BCE792
:1059A80018230020B40600207C2500208025002034
:1059B80084250020882500209823002070230020BB
:1059C8004823002038B5264C264D2268AA4204D028
:1059D800254B19688B8AD80637D4A26AAA4204D004
:1059E800224B19688B8ADB0625D4226DAA4204D083
:1059F8001F4B19688B8AD80613D4A26FAA420DD000
:105A08001C4B19688B8ADB0608D58B8A126823F031
:105A1800100319481B041B0C8B829047BFF34F8F50
:105A280038BD8B8A126823F0100314481B041B0C22
:105A38008B829047E1E78B8A126823F010031048A5
:105A48001B041B0C8B829047CFE78B8A04F108005C
:105A5800126823F010031B041B0C8B829047BCE7D1
:105A6800B8230020B40600208C25002090250020B3
:105A78009425002098250020382400201024002098
:105A8800E823002008B50A4B1B681B7A23B9094A8A
:105A9800136823F00103136007483F22054B9A60FF
:105AA80050F8083C1B689847BFF34F8F08BD00BFEC
:105AB800F824002000C01E408820002008B50A4BAA
:105AC8001B681B7A23B9094A136823F00103136082
:105AD80007483F22054B9A6050F8083C1B689847D6
:105AE800BFF34F8F08BD00BFFC24002000001F40FB
:105AF800B020002038B5064CA4F1A00554F8083CA5
:105B08002046283CDB689847AC42F7D138BD00BF37
:105B18005822002038B5064CA4F1A00554F8083CDA
:105B28002046283CDB689847AC42F7D138BD00BF17
:105B3800F822002038B5064CA4F1A00554F8083C1A
:105B48002046283CDB689847AC42F7D138BD00BFF7
:105B58009823002038B5064CA4F1A00554F8083C59
:105B68002046283CDB689847AC42F7D138BD00BFD7
:105B78003824002000220346104683F83D20704751
:105B880038B51C4B1A780AB1002038BD1A4C0122CE
:105B98001A4D42211A70E36E194A43F47003E36602
:105BA800E36943F04003E361164B2960C3F8D02151
:105BB8004FF0E02310221420C3F80C2101F0C4F99F
:105BC800E3691149114A5B06C560C0E9002106D5A1
:105BD800F3EE087A0E4BC0ED047A186038BD0D4B11
:105BE8000D4A1B68A2FB03239B0C07EE903AF8EEC4
:105BF800E77AEFE71331002000C00F4000C01E40D5
:105C0800753E0000001C00208020002010070020A6
:105C1800F82400206013002083DE1B4338B51C4B9A
:105C28001A780AB1002038BD1A4C01221A4D4221B7
:105C38001A70A36E194A43F07063A366E36943F0D0
:105C48004003E361164B2960C3F8D4214FF0E023E9
:105C580020221420C3F80C2101F076F9E3691149D8
:105C6800114A5B06C560C0E9002106D5F3EE087A43
:105C78000E4BC0ED047A186038BD0D4B0D4A1B68F9
:105C8800A2FB03239B0C07EE903AF8EEE77AEFE7C6
:105C98001431002000C00F4000001F40AD3E00003E
:105CA800001C0020A820002010070020FC24002051
:105CB8006013002083DE1B432DE9F843294F3C780D
:105CC80084BB294D2646DFF8BC90DFF8B48055F830
:105CD800083C08EB441201342846DB6828359681D5
:105CE8009847042C45F8309CF1D1204B204AC3F842
:105CF80054224FF0E022202101231820C2F810116D
:105D08003B7001F021F91B4A1B4B1C49C0E90032CA
:105D180009684FF086420F2302614361C0E9021609
:105D2800BDE8F8830024164B03EB4416B589ADB2E1
:105D38002DB10134042CF7D10020BDE8F8831820D8
:105D480004EB840401F000F90A4B0B494FF086423A
:105D580003EBC403C56086600261C0E900130F232A
:105D68004361DDE716310020E0210020001C0020FF
:105D7800753B0000D8210020E80700205C250020A2
:105D880000C01D40B40600202DE9F843294F3C7897
:105D980084BB294D2646DFF8BC90DFF8B48055F85F
:105DA800083C08EB441201342846DB682835968104
:105DB8009847042C45F8309CF1D1204B204AC3F871
:105DC80058224FF0E022402101231820C2F8101178
:105DD8003B7001F0B9F81B4A1B4B1C49C0E9003263
:105DE80009684FF086420F2302614361C0E9021639
:105DF800BDE8F8830024164B03EB4416B589ADB211
:105E08002DB10134042CF7D10020BDE8F883182007
:105E180004EB840401F098F80A4B0B494FF08642D2
:105E280003EBC403C56086600261C0E900130F2359
:105E38004361DDE71731002080220020001C00208C
:105E4800353C000078220020E80700206C2500205F
:105E580000001E40B40600202DE9F843294F3C7885
:105E680084BB294D2646DFF8BC90DFF8B48055F88E
:105E7800083C08EB441201342846DB682835968133
:105E88009847042C45F8309CF1D1204B204AC3F8A0
:105E98005C224FF0E022802101231820C2F8101163
:105EA8003B7001F051F81B4A1B4B1C49C0E90032FA
:105EB80009684FF086420F2302614361C0E9021668
:105EC800BDE8F8830024164B03EB4416B589ADB240
:105ED8002DB10134042CF7D10020BDE8F883182037
:105EE80004EB840401F030F80A4B0B494FF086426A
:105EF80003EBC403C56086600261C0E900130F2389
:105F08004361DDE71831002020230020001C002019
:105F1800F53C000018230020E80700207C2500201D
:105F280000401E40B40600202DE9F8432A4F3C7873
:105F38008CBB2A4D2646DFF8C090DFF8B88055F8AC
:105F4800083C08EB441201342846DB682835968162
:105F58009847042C45F8309CF1D1214B214AC3F8CD
:105F680060224FF0E0224FF4807101231820C2F81C
:105F780010113B7000F0E8FF1B4A1C4B1C49C0E99C
:105F8800003209684FF086420F2302614361C0E97D
:105F98000216BDE8F8830024164B03EB4416B589B6
:105FA800ADB22DB10134042CF7D10020BDE8F8833F
:105FB800182004EB840400F0C7FF0B4B0B494FF08B
:105FC800864203EBC403C56086600261C0E9001322
:105FD8000F234361DDE700BF19310020C0230020F3
:105FE800001C0020B53D0000B8230020E807002071
:105FF8008C25002000801E40B40600208368002203
:10600800182110B504469A8100F0A0FF204610BD63
:1060180070B51B4C217861B950221A4803F0EEFB89
:10602800194B0122596822705A6891421BD0FFF718
:106038007DFA144E0024334602E00134142C10D0AB
:1060480053F8045B002DF8D1402000F07DFF0F4B82
:1060580080F83D5046F82400C0E900350C4B8360B9
:1060680070BD002070BD4FF0E021D1F8FC2D42F04A
:106078008072C1F8FC2D1A6842F001021A60D6E756
:10608800153100200C250020001000E03008002009
:10609800B406002038B5D0E90C54FFF793FA074B43
:1060A8002C4493ED000A241AB8EE400A07EE904AF1
:1060B800F8EE677A87EE800A38BD00BF64130020C7
:1060C80010B50446FFF77EFA01230246002022633A
:1060D80084F83D3010BD00BF38B504460D46FFF7C3
:1060E80071FA0123A56384F83D30C4E90C0500204A
:1060F80038BD00BFF8B5124E0446FFF763FA35788D
:10610800DDB9636BBBB194F83D70A7B1226B801AFF
:10611800834210D81344012204F110002363A36BB7
:10612800636394F83C3084F83D30A3681B68327090
:10613800984735703D462846F8BD00252846F8BDE5
:106148001C3100208368064ADB6810B5044640F815
:10615800082B083098472046FFF720FA204610BD44
:106168003008002010B50446FFF732FA0346002035
:10617800A36310BD10B50C46FFF72AFA03460020AA
:10618800236010BD38B50446FFF722FA0546FFF72D
:1061980019FA226B821AAA4206D30346A26804F1AE
:1061A80010002363136898470020C4E90D5538BDD3
:1061B80008B5FFF721FADFED027A80EE270A08BD5D
:1061C80000247449036870B59E680446FFF700FA16
:1061D800094B05469E4209D1FFF7F4F90123A5634F
:1061E80084F83D30C4E90C05002070BD01463346F3
:1061F8002046BDE870401847C9440000084A836833
:1062080010B50446DB6840F8082B0830984720464C
:10621800FFF7C4F92046402100F098FE204610BD43
:1062280030080020DFED3A7AD0ED046A20EE270A24
:106238009FED387A2DE9F041C0EE267A94B00446F5
:106248001746F4EEC77AF1EE10FA5CDCFCEEE77A5A
:10625800002617EE903A9BB2A06800228281C28085
:106268000380038251F8083B4281012200935B6856
:10627800828202A89847009B02A90CA80A935B682F
:106288009847D4F80480454655F8083BDB6828460B
:1062980098470A9B204A0CA928460A92C8F8003059
:1062A8009B6898470A9B0CA8DB689847009B02A844
:1062B800DB6898476369EFB942F260015B02A26844
:1062C80003F4F0531943236891819B6913498B4266
:1062D80013D1002330465381938A23F010031B0403
:1062E8001B0C9382938A9BB243F04003938214B0B1
:1062F800BDE8F08142F22001E0E7204698473046A9
:1063080014B0BDE8F0814FF6FE736FF06306A3E7A3
:106318000000164300FE7F47B4060020FD39000048
:10632800002330B504468DB00D4680F83D3080F826
:106338003C20DAB9294604A851F8083B5A68029368
:106348009047A36804F11000DB6801909847029B0E
:1063580004A9094A0198A36002929B689847029B86
:1063680004A8DB68984700200DB030BDFFF730F96E
:10637800C4E90D00DEE700BFB4060020784A1068C3
:1063880010F0010010B50BD1764B0121764C11604D
:106398001C60764A76499C621C659C6702F05EFA2E
:1063A800744B1A68D10704D40120734A73491860E2
:1063B8001160734A106810F001000BD1714B012174
:1063C800694C11601C60694A6F499C621C659C6736
:1063D80002F044FA6D4B1A68D20704D401206C4AC3
:1063E8006C49186011606C4A106810F001000BD1FC
:1063F8006A4B01215C4C11601C605C4A68499C62D4
:106408001C659C6702F02AFA664B1A68D40704D404
:106418000120654A654918601160654A106810F0E6
:1064280001000BD1634B01214F4C11601C604F4A96
:1064380061499C621C659C6702F010FA5F4B1A6800
:10644800D00704D401205E4A5E49186011605E4B93
:106458001A68D10770D55D4B1A68D20776D55C4BA0
:106468001A68D40704D401205A4A5B49186011609D
:106478005A4B1A68D00704D40120594A5949186060
:106488001160594B1A68D10704D40120574A58495A
:1064980018601160574B1A68D20704D40120564A75
:1064A800564918601160564B1A68D40704D4012065
:1064B800544A554918601160544B1A68D00704D4DF
:1064C8000120534A534918601160534B1A68D10789
:1064D80004D40120514A524918601160514B1A687E
:1064E800D20704D40120504A504918601160504B1B
:1064F8001A68D40704D401204E4A4F491860116025
:106508004E4B1A68D00704D401204D4A4D491860F3
:1065180011604D4B1A68D10704D401204B4A4C49ED
:10652800186011604B4B1A68D20704D401204A4AFC
:106538004A491860116010BD0B49012448480B4AAC
:10654800016048491C6002F089F984E70649012482
:106558004548064A016043491C6002F07FF97EE71E
:10656800A8240020D8210020B4060020A41300206D
:10657800E53E0000982400205C25002000C01D4056
:10658800BC24002078220020053F0000AC24002015
:106598006C25002000001E40D02400201823002075
:1065A800253F0000C02400207C25002000401E401C
:1065B800E4240020B8230020453F0000D424002014
:1065C8008C25002000801E40902400209424002068
:1065D8009C2400206025002020C01D40A02400200D
:1065E8006425002040C01D40A42400206825002008
:1065F80060C01D40B02400207025002020001E40EF
:10660800B42400207425002040001E40B824002037
:106618007825002060001E40C4240020802500202A
:1066280020401E40C82400208425002040401E40F1
:10663800CC2400208825002060401E40D82400205B
:106648009025002020801E40DC2400209425002076
:1066580040801E40E02400209825002060801E40D5
:1066680080200020252E0000A8200020EFF31082B3
:1066780072B6437F5BB9017F012930B40BD003297F
:1066880013D00123437702B962B630BC70470AB908
:1066980062B670477047124C2168B1B11149436125
:1066A8000B68086083615861EBE70F4D0F492C6850
:1066B8008CB143610B68836158614FF0E0234FF060
:1066C80080540860C3F8044DDBE7064B206018606F
:1066D800C0E90511D5E7C0E905442860EDE700BF2A
:1066E800E8240020F4240020F0240020EC240020DA
:1066F80070B5EFF3108272B60C4C206880B10C4E66
:1067080000254369236073B19D6102B962B683684D
:1067180045779847EFF3108272B620680028F0D1C9
:1067280002B962B670BD3360EFE700BFF024002005
:10673800EC240020FFF7DCBF037F012B0ED0032BD6
:1067480000D07047437F33B1D0E90523C3B15A6104
:1067580062B90E4A1360002303777047437F002B0A
:10676800F9D0D0E905232BB15A6132B193610023E6
:106778000377704706490A60F7E7064A1360EAE7B5
:1067880005490A60002AF1D1E3E700BFEC240020A4
:10679800E8240020F4240020F02400200449054ABD
:1067A8004968054B1960136801331360704700BFCF
:1067B800001000E0F0300020EC300020084601F026
:1067C8003BBF00BF012A70B508BF0A228AB091B347
:1067D8004FF0210E01E05FFA86FE0EF1FF36B1FBA5
:1067E800F2F502FB15145FFA84FC092C0CF137044E
:1067F8000CF1300C98BF5FFA8CF40EF1280C88BFAE
:10680800E4B29142EC4429460CF8244CE3D24BB153
:106818000EF1FF3E2D225FFA8EFE0EF128036B4427
:1068280003F8242C036801A9CEF122025B687144A5
:1068380098470AB070BD30224FF0210E8DF8252000
:10684800E5E700BF002903DB00230A22FFF7BABFF0
:1068580049422D230A22FFF7B5BF00BF00B50368E0
:1068680083B040F60D2C022201A95B68ADF804C084
:10687800984703B05DF804FB5AB90368C9B2074AE0
:106888001B68934200B506D108465DF804EB01F099
:10689800D3BEFFF797BF5DF804EB1847AD4B000078
:1068A800A249A34B88422DE9F047A24C5E699A6938
:1068B800D4F80C801BD9A04B984240F20281C31A2D
:1068C8009E491B0AA1FB031340F22761DB0903EB76
:1068D800830303EB830303F2E2438B4228BF0B4697
:1068E800A3F54877964BA3FB0737FF0804E0954FBD
:1068F800B8428CBF0E2706278D4908F01F09D1F82A
:106908008030B94543F0C003C1F880300CD228F07C
:106918001F08A1F5F82148EA0708C1F80C800B68A0
:10692800002BFCDA08F01F0916F0007324D1864901
:106938000C698649A14300F0EA8082F4805134460C
:106948004FF4805514F0605F04D026F060561E4363
:10695800774B5E6111F4405F07D022F440527449CE
:106968002A438A618B6C1A07FCD446F00076704A79
:106978005661936C9B06FCD4754CA04200F2CE8005
:106988004FF0010C0146634603FB011203F1010EAF
:106998000CF10105A24218D8BEF1080F4FF001030F
:1069A80040F08D80BCF1040F00F291800A18A242D9
:1069B80000F2A48005FB00F1AC4603F1010E03FBD5
:1069C80001120CF10105A242E6D90CF1FF318C024B
:1069D80086EA81215F4810445F4A90427FD9DFF8F8
:1069E800A4A16C225D48584DB0FBFEF0D5F800E03C
:1069F800B0FBFCF0DFF890C10EEA0C0CD44509D0CE
:106A080042F400524FF4805CC5F800C02A602A683E
:106A1800002AFCDA464A156905F007059D4203D0AD
:106A28001361936CDD03FCD411F4E05F09D026F404
:106A3800E05604F4E0543E4A26435661936C9907A5
:106A4800FCD44749474A014491423CD8464BC909BE
:106A5800A3FB0131090B4B1E1B0286EA030212F449
:106A6800407F06D026F4407603F44073304A33431F
:106A780053612F4A536923F000735361936C9B064B
:106A8800FCD43A4B4F45A3FB00234FF0FF324FEAAB
:106A98009343B0FBF1F1B2FBF3F3354A1060354A8A
:106AA8001160354A136008D228F01F08214A48EAC5
:106AB8000707D7601368002BFCDABDE8F087734638
:106AC80062E7122718E74FF440730421C5E70CF179
:106AD800FF31204807238C02104486EA8121274A87
:106AE800DFF8A8A0A2FB0020020D2548362A38BFEF
:106AF800362202FB00F042EA0A0A74E74FEA8C24C5
:106B0800002386EA8C214FF0010EAC4662E71D4651
:106B180086F0C05411464FF0C05313E700244FF0DD
:106B2800010C024631462346E64653E700A4781F87
:106B380000C00F40000008400046C32323B24C00A9
:106B48001F85EB5100366E0100800D4040300080FB
:106B5800FFB19F26808D5B00FF7EF64D00643F4DA0
:106B68007FD1F0087F17B42C9F10E50083DE1B430C
:106B78006413002060130020482A0020819F5E16BD
:106B8800001BB7006C2000807F300180002000804F
:106B980000B970472DE9F84F01218146214C224D5B
:106BA800224E54E8003F2A68306844E80013002B5E
:106BB800F7D11F494B684FF47A7BDFF878A01B1A8E
:106BC80001270BFB02F8DAF80020A3FB02325A4532
:106BD80094BF9044D84454E8003F2A68306844E899
:106BE8000073002BF7D14B68DAF800C01B1A0BFBB7
:106BF80002F2A3FB0C3CBCF57A7F94BF624402F519
:106C08007A72A2EB0802B2F57A7F06D3B9F10109CC
:106C180008F57A78DFD1BDE8F88F01F0A1FD0449C5
:106C2800D9E700BFF4300020F0300020EC3000201D
:106C3800001000E0482A002030B40F4B4FF0010C40
